:020000040000FA
:100000000C9476020C949E020C949E020C94422452
:100010000C9442240C9442240C949E020C949E0254
:100020000C949E020C949E020C949E020C949E02D0
:100030000C949E020C949E020C949E020C949E02C0
:100040000C94A0230C949E020C9410240C94EA238C
:100050000C949E020C949E020C949E020C949E02A0
:100060000C949E020C949E025A4441005654470040
:10007000524D4300475356004753540047534100E5
:10008000474C4C00474741007B4D494E7D486172CB
:100090006477617265204552524F5221204E6F2085
:1000A00053693533353120504C4C20646576696393
:1000B0006520666F756E64206F6E207468652049D8
:1000C0003243206275737321002450434153313011
:1000D0002C332A3146007B4D494E7D205265736595
:1000E0007474696E6720475053007B4D494E7D43C1
:1000F000616E206E6F742073746172742057535058
:100100005220426561636F6E007B4D494E7D4361B5
:100110006C6C205369676E206E6F74207365740079
:100120007B4D494E7D5472616E6D697373696F6E5C
:10013000206973206E6F7420656E61626C65642047
:100140006F6E20616E792062616E64007B4D494E56
:100150007D4861726477617265204552524F522129
:10016000204E6F2053693533353120504C4C20647C
:10017000657669636520666F756E64206F6E2074A6
:10018000686520493243206275737321007B5457A0
:10019000537D20007B4D50537D2030007B4D5053CC
:1001A0007D20007B5446517D20007B4C50497D20B2
:1001B000007B4D56437D20007B5443437D007B54A0
:1001C0004F4E7D2046007B544F4E7D2054007B5483
:1001D00046517D20007B474C437D2046007B474CA9
:1001E000437D2054007B47544D7D20007B474C3697
:1001F0007D20007B474C347D20007B544F4E7D207A
:1002000054007B544F4E7D2046007B544F4E7D2042
:1002100046007B43434D7D20007B4753497D2000B2
:100220007B4D494E7D204D6F64696669656420622F
:1002300079204A4A31424458007B4D494E7D204640
:1002400069726D776172652076657273696F6E2071
:10025000007B4D494E7D205A61636854656B205781
:10026000535052204465736B746F70207472616ECA
:10027000736D6974746572007B4D494E7D204E6FBD
:1002800020757365722064617461207761732066E4
:100290006F756E642C2073657474696E6720646575
:1002A0006661756C742076616C756573007B4D4971
:1002B0004E7D20596F75206E65656420746F2072C5
:1002C000756E20666163746F7279207365747570E2
:1002D00020746F20636F6D706C6574652074686541
:1002E00020636F6E66696775726174696F6E2C202A
:1002F0006775657373696E67206F6E2063616C69E3
:1003000062726174696F6E2076616C7565732066C8
:100310006F72206E6F77007B4D494E7D204E6F20AF
:10032000666163746F7279206461746120666F75B1
:100330006E642021007B4D494E7D20466163746FC1
:1003400072792064617461207361766564007B4614
:1003500052467D20007B464C507D204420007B4649
:100360004C507D204320007B464C507D2042200095
:100370007B464C507D204120007B464C507D2041E7
:10038000203035007B464C507D2041203037007BAB
:10039000464C507D2041203038007B464C507D201B
:1003A00041203039007B4653527D20007B46535616
:1003B0007D20007B4648527D20007B4648567D20AC
:1003C000007B46504E7D20007B4447467D20007BCD
:1003D0004450447D20007B444E4D7D20007B444CA6
:1003E000367D20007B444C347D20007B4450467D8C
:1003F00020007B4453467D20007B4443537D2000F6
:100400007B4F50537D20007B4F54537D20007B4F0A
:1004100050577D20007B4F4C507D20007B4F4C433C
:100420007D20007B444C367D20007B444C347D2075
:10043000007B4F4C4320477D20007B4F42447D2072
:10044000007B4F534D7D20007B4F54507D20007B1F
:100450004D494E7D20436F6E6669677572617469A0
:100460006F6E207361766564007B4D494E7D20522E
:100470006573657474696E6720475053000000000F
:1004800000240027002A00000000080002010000EC
:100490000304070000000000000000840080007CCE
:1004A000007800740070006C0068000000000023F9
:1004B000002600290000000000250028002B000471
:1004C00004040404040404020202020202030303FB
:1004D00003030301020408102040800102040810F5
:1004E0002001020408102000BA24083011241FBE85
:1004F000CFEFD8E0DEBFCDBF12E0A0E0B1E0E4EA8C
:10050000F3E702C005900D92AA35B107D9F725E0AF
:10051000AAE5B2E001C01D92A83BB207E1F712E0E4
:10052000C5E7D2E004C02197FE010E943134C437F0
:10053000D107C9F70E949B250C94C5390C94000083
:10054000FC0180918E0581111AC0118210821382E4
:1005500012828091900582608093900510928F05A1
:1005600091E06D3209F090E08091900590FB80F968
:10057000809390056D3209F06EC080E008956C3272
:1005800099F580918F05811103C081E080938F05DB
:1005900082819381892B99F05AE080918F0591E0B7
:1005A000980F90938F05481750F022813381529F06
:1005B000C001539F900D112493838283EECF9091BD
:1005C0009005892F817090FF44C02281338131953D
:1005D0002195310933832283208131813195219501
:1005E00031093183208308956E3221F481E08093B4
:1005F0008F05C3CF80918F05811112C02081318179
:100600004AE0429FC001439F900D1124062E000C2A
:10061000770B60537109680F791F71836083ADCFC9
:1006200091E0980F90938F05481708F4A6CF228188
:1006300033814AE0429FC001439F900D1124062E52
:10064000000C770B60537109680F791F7383628305
:1006500094CF81E008956C3209F497CF6E3271F631
:10066000C5CF813311F0813421F483E080938A0572
:1006700008C0803321F08E3411F0863541F4109299
:100680008A0580918B05816080938B050895823364
:1006900011F0843411F484E0E9CF833311F487E05E
:1006A000E5CF843311F486E0E1CF853311F485E0A2
:1006B000DDCF863311F0853449F781E0D7CFE09163
:1006C0008E05E930F0F4F0E0E859FC4F0C94313439
:1006D000710383038803900395039D03A203AA0378
:1006E000B403109289058C3261F09091900592606C
:1006F0009093900580539AE0899F802D11248093D8
:10070000840581E00895909184059053890FF7CF77
:1007100080539AE0899F802D112480938305F1CF27
:10072000909183059053890FF8CF80539AE0899F69
:10073000802D112480938205E4CF909182059053FF
:10074000890FF8CF8C32E9F680918B058460809315
:100750008B05D7CF8C32C1F380539AE0899F802DCF
:10076000112480938905CDCF8C3271F39091890546
:100770009053890F80938905E7CFFC018091900504
:100780008E7F8093900580918E05811106C06C321A
:1007900069F06053608381E008956C32E1F38081F9
:1007A00060539AE0899F600D1124F4CF80E0089592
:1007B00090E0FC01E957FB4F2491FC01ED52FB4F07
:1007C0003491FC01E154FB4FE491EE23C9F0222364
:1007D00039F0233001F1A8F4213019F1223029F148
:1007E000F0E0EE0FFF1FEB54FB4FA591B4918FB7D4
:1007F000F894EC91611126C030953E233C938FBF55
:1008000008952730A9F02830C9F0243049F78091A5
:1008100080008F7D03C0809180008F77809380005F
:10082000DFCF84B58F7784BDDBCF84B58F7DFBCFE1
:100830008091B0008F778093B000D2CF8091B000CC
:100840008F7DF9CF3E2BDACFCF93DF9390E0FC0181
:10085000ED52FB4F249181549B4FFC0184918823DE
:10086000D1F090E0880F991FFC01E358FB4FA59150
:10087000B491FC01EB54FB4FC591D49161110EC0B2
:100880009FB7F8948C91E22FE0958E238C9328816A
:10089000E223E8839FBFDF91CF9108958FB7F8944B
:1008A000EC91E22BEC938FBFF6CF3FB7F894809199
:1008B000060390910703A0910803B091090326B5A0
:1008C000A89B05C02F3F19F00196A11DB11D3FBF88
:1008D000BA2FA92F982F8827BC01CD01620F711D57
:1008E000811D911D43E0660F771F881F991F4A9550
:1008F000D1F708958F929F92AF92BF92CF92DF92DD
:10090000EF92FF924B015C010E9455046B017C0148
:100910000E9455046C197D098E099F09683E734039
:1009200081059105A8F321E0821A9108A108B10878
:1009300088EEC80E83E0D81EE11CF11C81149104DE
:10094000A104B10429F7FF90EF90DF90CF90BF9002
:10095000AF909F908F900895EF92FF920F931F9307
:10096000CF93DF938C017B01D0E0C0E0F701EC0F67
:10097000FD1F6491662361F0D801ED91FC91019017
:10098000F081E02DC8010995892B11F02196EECF59
:10099000CE01DF91CF911F910F91FF90EF900895BD
:1009A000AF92BF92CF92DF92EF92FF920F931F937D
:1009B000CF93DF936C017B018B01040F151FEB01BB
:1009C0005E01AE18BF08C017D10759F06991D60172
:1009D000ED91FC910190F081E02DC6010995892BE4
:1009E00079F7C501DF91CF911F910F91FF90EF90A3
:1009F000DF90CF90BF90AF900895FC01538D448D50
:100A0000252F30E0842F90E0821B930B541710F0B9
:100A1000CF96089501970895FC01918D828D9817C6
:100A200061F0A28DAE0FBF2FB11D5D968C91928D9E
:100A30009F5F9F73928F90E008958FEF9FEF0895CF
:100A4000FC01918D828D981731F0828DE80FF11D98
:100A5000858D90E008958FEF9FEF0895FC01918DB3
:100A6000228D892F90E0805C9F4F821B91098F73AC
:100A70009927089580E294E00E942E0521E0892BB9
:100A800009F420E0822F089580E090E0892B29F07E
:100A90000E943A0581110C9400000895FC01A48D78
:100AA000A80FB92FB11DA35ABF4F2C91848D90E090
:100AB00001968F739927848FA689B7892C93A08973
:100AC000B1898C91837080648C93938D848D9813FD
:100AD00006C00288F389E02D80818F7D8083089590
:100AE000EF92FF920F931F93CF93DF93EC0181E07E
:100AF000888F9B8D8C8D98131AC0E889F989808125
:100B000085FF15C09FB7F894EE89FF896083E88957
:100B1000F98980818370806480839FBF81E090E049
:100B2000DF91CF911F910F91FF90EF900895F62ED6
:100B30000B8D10E00F5F1F4F0F731127E02E8C8D70
:100B40008E110CC00FB607FCFACFE889F9898081B5
:100B500085FFF5CFCE010E944E05F1CFEB8DEC0F56
:100B6000FD2FF11DE35AFF4FF0829FB7F8940B8FD2
:100B7000EA89FB8980818062CFCFCF93DF93EC013C
:100B8000888D8823B9F0AA89BB89E889F9898C9175
:100B900085FD03C0808186FD0DC00FB607FCF7CF31
:100BA0008C9185FFF2CF808185FFEDCFCE010E9431
:100BB0004E05E9CFDF91CF9108958F929F92AF922A
:100BC000BF92CF92DF92EF92FF926B017C01BC014A
:100BD000A60182E076956795579547958A95D1F756
:100BE000D701C60124E0B695A795979587952A95D4
:100BF000D1F7840F951FA61FB71F4C015D0134E08C
:100C0000B694A794979487943A95D1F7880D991D37
:100C1000AA1DBB1D892E9A2EAB2EBB24880E991EB1
:100C2000AA1EBB1EC501AA27BB27880E991EAA1E95
:100C3000BB1EA3E0B0E0A50194010E948532A7018C
:100C40009601261B370B480B590BABE0B0E00E9416
:100C50008532E5E09695879577956795EA95D1F782
:100C6000680D791D8A1D9B1DFF90EF90DF90CF903E
:100C7000BF90AF909F908F900895CF92DF92EF92A8
:100C8000FF921F93CF93DF93EC01162F80918E0577
:100C900081110BC0188219821A821B8210928F0553
:100CA000809190058260809390051E3291F11C32F4
:100CB00009F064C080918F05882359F180918F05D8
:100CC000843009F07CC0288139814A815B81A4E6A7
:100CD000B0E00E948532688379838A839B83C880D1
:100CE000D980EA80FB80C701B601660F771F881F95
:100CF000991F6F5F7F4F8F4F9F4F0E94DD05C60E7C
:100D0000D71EE81EF91EC882D982EA82FB8281E0E2
:100D10002AC081E080938F052981822F82958F7070
:100D20002F703AE0839F200D11248A8181112C5964
:100D30008881982F92959F708F703AE0939F800DD5
:100D400011249CE3299F90011124820F932F911D60
:100D5000092E000CAA0BBB0B88839983AA83BB8343
:100D60001E3249F480E0DF91CF911F91FF90EF9008
:100D7000DF90CF9008951C3209F4A0CF80918F05A9
:100D8000811143C088819981AA81BB8134E0880F99
:100D9000991FAA1FBB1F3A95D1F7412F110F550B71
:100DA00040535109052E000C660B770B842B952BB5
:100DB000A62BB72B88839983AA83BB83D3CF853097
:100DC00039F4288139814A815B81AAE0B0E081CF82
:100DD000863009F484CF08F09ACF288139814A817E
:100DE0005B81A8EEB3E0833009F473CF823019F44D
:100DF000A0E1B7E26ECF813009F071CF60EA76E80A
:100E000081E090E00E94343266CF8F5F80938F053F
:100E10008730C0F4288139814A815B81AAE0B0E043
:100E20000E948532212F110F330B205331096901A4
:100E3000330FEE08FF08DC01CB018C0D9D1DAE1DAC
:100E4000BF1DB8CF873009F08DCFC880D980EA8028
:100E5000FB80C701B601660F771F881F991F6F5F60
:100E60007F4F8F4F9F4F0E94DD056C0D7D1D8E1DA6
:100E70009F1D19334CF06E5F7F4F8F4F9F4F6883DC
:100E800079838A839B836ECF1433CCF36F5F7F4F5C
:100E90008F4F9F4FF4CF1F93CF93DF931F92CDB708
:100EA000DEB7682F1091FB04153009F484C01630AA
:100EB00009F403C1113009F025C1E0918D05E1501D
:100EC000E93008F01FC1F0E0E859F84F0C943134D4
:100ED000710770087E07A1078408B307BB07820863
:100EE000C807862F0E945F030F90DF91CF911F915B
:100EF00008958DE695E00E943D0604C1809190051D
:100F000082FF00C180918E058111FCC0633509F01C
:100F1000F9C080916D0590916E05A0916F05B0911B
:100F20007005B095A095909581959F4FAF4FBF4F9D
:100F300080936D0590936E05A0936F05B093700537
:100F4000E1C06C3249F480918E05811105C0809119
:100F500090058B7F809390058091900582FFD2C091
:100F600081E795E0C8CF80918E058111CBC0862F97
:100F70000E943103C7C081E895E00E94BD039091B3
:100F80008B059068882309F4BDC090938B05ACCF86
:100F900042E085E795E00E94A002882309F4B2C0F0
:100FA00021E090918E05911101C020E090918B0578
:100FB00020FB94F9EACF80916C05843108F0A2C03F
:100FC00020918D05243008F49DC0482F50E02370F7
:100FD000223079F02330E9F1819FC00111242130C2
:100FE00029F0885F9A4F0E94BD038CC0875F9A4F9B
:100FF000FACF149FF001159FF00D11246C3201F10E
:10100000809190058E7F8093900540918E05862F6C
:1010100090E0E550FB4F411104C0C097908B87874B
:1010200071C0278530894AE0429FB001439F700D0F
:10103000112460537109680F791F708B678762C034
:10104000E45FFA4F90819F7790838F5F80936C0568
:1010500059C041505109149FF001159FF00D112402
:10106000E45FFA4F6C32F1F080818F778983CE0193
:1010700001960E94BD0380916C058150990B189FC9
:10108000F001199FF00D1124E45FFA4F99819F77C9
:1010900080818078892B8083809190058260809305
:1010A000900530C091E080918E05811101C090E0E3
:1010B000808190FB87F9808325C0E0918D05E15008
:1010C000E93000F5F0E0E959F74F0C94313471073D
:1010D000B30770087E07A1078408AE08C008D308CC
:1010E00080918E0581110AC091E06C3209F490E084
:1010F0008091900590FB82F98093900580919005F6
:1011000082FDF7CE81E0F0CE9091900592FB88278A
:1011100080F992FFF7CF90918E059111F3CF9091C6
:101120008B05986090938B05673561F74091710549
:10113000509172056091730570917405709560957A
:10114000509541955F4F6F4F7F4F4093710550937E
:1011500072056093730570937405C6CE43E089E70A
:1011600095E00E94A002882369F221E090918E050B
:10117000911101C020E090918B0520FB95F905CFDE
:1011800042E08DE795E00E94A002882309F4BACFDF
:1011900021E090918E05911101C020E090918B0586
:1011A00020FB96F9F2CE80918E05823041F150F409
:1011B0008823D1F0813009F0A5CF80918605805336
:1011C000680F1AC0843041F110F1853009F09ACFD0
:1011D000809188058053680F6093880580918B0506
:1011E000826080938B058ECF6C3209F48BCF605375
:1011F0008AE0689F602D11246093860583CF605339
:101200008AE0689F602D1124609387057BCF8091D1
:1012100087058053680FF8CF60538AE0689F602D80
:101220001124609388056ECF2091B3023091B402EF
:101230002817390771F49091B1028091B202981782
:1012400041F0E091B102F0E0EF58FD4F808190E075
:1012500008958FEF9FEF08950895EF92FF920F93F7
:101260001F93CF93DF93DC015C96ED90FC905D972C
:10127000E114F10479F481E090E013969C938E934D
:10128000129790E080E0DF91CF911F910F91FF9036
:10129000EF9008955196ED91FC91529750968C9154
:1012A0005097982F90950FB75E962C915E97122FBE
:1012B000127021FD6095F8942081112319F1282BDB
:1012C0002083E7012197F1F728E0462F50E0308195
:1012D00060FF1AC0382B3083E7012197F1F7BA017C
:1012E00075956795215089F7112381F080818923B5
:1012F00080830FBF5C968D919C910197F1F781E0FF
:1013000090E0C1CF2923DCCF3923E5CF9081892B11
:10131000EFCF2091B3023091B4022817390761F45E
:101320008091B2022091B10290E0805C9F4F821BBD
:1013300091098F739927089590E080E00895209196
:10134000B3023091B40228173907B9F49091B10271
:101350008091B202981789F0E091B102F0E0EF5865
:10136000FD4F80812091B10230E02F5F3F4F2F73FE
:1013700033272093B10290E008958FEF9FEF0895F7
:101380009F92AF92BF92CF92DF92EF92FF920F9314
:101390001F93CF93DF9311E0D1E003E092E0F92EA9
:1013A0008DEB94E00E948909892B09F4CEC18DEB65
:1013B00094E00E949F09C82F809104059091050533
:1013C000A0910605B09107050196A11DB11D80935E
:1013D000040590930505A0930605B0930705C43254
:1013E000B9F48091900584FF05C08F7E80939005AD
:1013F00010926C0510928C051092FB04D09391050D
:1014000010928E05809190058D7F80939005C8CFB6
:1014100080919105823079F5CA3229F400939105C3
:1014200010928E05BDCF80EE8C0F8F3550F48091D9
:101430008C058C2780938C058C2F0E944B07811183
:1014400007C010928B051092FB0410929105A8CF53
:10145000CC3259F4809190058D7F809390058091D6
:101460008D058F5F80938D05DBCF80918E058F5F1B
:1014700080938E0595CF813009F061C090918C05E5
:101480009C2790938C05CC3269F49091FB049923AE
:10149000D1F210928B0580938D0510928E05F092FB
:1014A00091057ECFE0908E0581E08E1508F05EC13B
:1014B0008EEFB82EBE0C8091FB04882309F43DC04A
:1014C0008150E82FF0E0EE0FFF1FE556FB4F25910E
:1014D000349150E040E0CB2CD12C61E0680F70E0FB
:1014E000F901EC0DFD1DE491CE1709F43CC1CE17B6
:1014F0000CF4A9CFAA24A394A80E873009F4A3CF93
:10150000FB01E40FF51FEE0FFF1FE556FB4FA59102
:10151000B49190E080E08B1558F4F901E80FF91FC1
:101520009490FD01E80FF91FE49101969E1699F33E
:101530004F5F5F4F8A2D9D01D3CF80E0C2CF8330B4
:1015400009F0F3C0C0628FE98C0F863038F5C755BB
:1015500090918E0580918C05911122C0D0938E05BB
:1015600090E024E0959587952A95E1F7C81719062C
:1015700009F416CF8091000590910105A091020514
:10158000B09103050196A11DB11D809300059093B4
:101590000105A0930205B093030553CFC053D8CFE4
:1015A0008F7021E08C1301C020E08C13E3C0809188
:1015B000900581FF09C08D7F809390059F5F909378
:1015C0008E058CE20E944B078091FC049091FD04F3
:1015D000A091FE04B091FF040196A11DB11D80935E
:1015E000FC049093FD04A093FE04B093FF0490913B
:1015F000FB0421E0963009F020E08091900520FB6B
:1016000084F980939005109291052091B1052111E4
:1016100091C080918B0580FF0CC020918A0530918C
:10162000B00530FF04C03091AF05321710F420939D
:10163000AF0581FF0CC0209186052093AB0520915A
:1016400087052093AC05209188052093AD0582FF86
:1016500010C0209184052093A90520918305209333
:10166000A805209182052093A70520918905209344
:10167000AE0583FF09C088E0EDE6F5E0A2E9B5E03C
:1016800001900D928A95E1F780918B0584FF10C03F
:1016900040917505509176056091770570917805B8
:1016A00040939A0550939B0560939C0570939D050C
:1016B00086FF10C040917D0550917E0560917F05A9
:1016C000709180054093A2055093A3056093A405F3
:1016D0007093A50585FF10C04091790550917A055A
:1016E00060917B0570917C0540939E0550939F050A
:1016F0006093A0057093A10587FF04C080918105C8
:101700008093A60580918B052091B005822B809354
:10171000B005963009F044CE1092B3058091B10522
:1017200081113ECE1093B1053BCE811139CE10927E
:10173000FB0436CE8860809390051092B2058091AC
:10174000B10581508093B10564CF8091B105DF91DF
:10175000CF911F910F91FF90EF90DF90CF90BF90AE
:10176000AF909F9008958F5F8093FB04E394E09285
:101770008E0516CE2111FECE13CE90E080E00895A6
:10178000282F082E000C330B205331092A30310545
:1017900010F480530895803231F09FEB980F9A3106
:1017A00020F48753089584E208958FEF0895CF932E
:1017B000DF93CDB7DEB763970FB6F894DEBF0FBEE9
:1017C000CDBF982F83E1EAE0F1E0DE0111960190B0
:1017D0000D928A95E1F7892F9D3308F08CE3FE0185
:1017E0003196AE014C5E5F4F2191921708F0822F27
:1017F000E417F507C9F763960FB6F894DEBF0FBE7E
:10180000CDBFDF91CF910895803269F0282F082E47
:10181000000C330B205331092A30310510F480536A
:1018200008958753089584E208958093BB0084E867
:101830008093BC008091BC0087FFFCCF8091B900F1
:10184000887F089584E98093BC008091BC0084FD6A
:10185000FCCF089584EA8093BC008091BC0087FF90
:10186000FCCF8091B900887F0895CF93DF93D82F64
:10187000C62F0E942A0C8830B9F48091B502880FD7
:101880000E94150C883191F48D2F0E94150C88321E
:1018900079F48C2F0E94150C883261F40E94220C7E
:1018A00080E0DF91CF91089581E0FBCF82E0F9CF16
:1018B00083E0F7CF84E0F5CF4F925F926F927F92F3
:1018C0008F929F92AF92BF92CF92DF92EF92FF9250
:1018D000CF93DF93CDB7DEB72C970FB6F894DEBF6A
:1018E0000FBECDBF4B015C01CA01B90120E030E061
:1018F00044E353E40E94DF322B013C0120E030E05E
:1019000040EA51E40E944B330E94BD336B01072E25
:10191000000C880B990B0E94013120E030E040EA76
:1019200051E40E9460319B01AC01C301B2010E94ED
:10193000DE322B013C0120E030E040E05FE30E941A
:1019400060310E94BD3369837A838B839C8320E05E
:1019500030E044EB52E4C501B4010E94DF324B0198
:101960005C0120E030E040E251E40E944B330E94F1
:10197000BD336D837E838F8398872D813E81B9012E
:10198000330F880B990B0E94013120E030E040E2D8
:1019900051E40E9460319B01AC01C501B4010E9479
:1019A000DE324B015C010E94BD3369877A878B87E9
:1019B0009C8731E4C30EECEAF3E0C3AE8D818F5B0C
:1019C00084AF2981205D25AF9985905D96AF17AED4
:1019D000C092EC038093ED032093EE039093EF030A
:1019E00029813A81B901330F880B990B0E9401318B
:1019F0009B01AC010E94DF329B01AC01C301B2012B
:101A00000E94DE3220E030E040E451E40E94603188
:101A10000E94BD336F5B6093F00329853A85B9015D
:101A2000330F880B990B0E9401319B01AC01C5015A
:101A3000B4010E94DE3220E030E040EC51E40E942C
:101A400060310E94BD336F5B6093F1031092F2032B
:101A50002C960FB6F894DEBF0FBECDBFDF91CF91AD
:101A6000FF90EF90DF90CF90BF90AF909F908F90BE
:101A70007F906F905F904F9008955F926F927F92EA
:101A80008F929F92AF92BF92CF92DF92EF92FF928E
:101A90000F931F93CF93DF934C01DC0114966D904D
:101AA0007C90D0E0C0E020E030E040E050E060E03A
:101AB00070E080E090E0C615D70571F1D401ED919A
:101AC000FC91512C309719F0EC0FFD1F5080E0ED88
:101AD000E50DEA3008F5EAE0AE2EB12CC12CD12C90
:101AE000E12CF12C00E010E00E94373459016A012A
:101AF0007B018C01852D550C990BC097E92FEE0FBA
:101B0000EE0B9C014E2F5E2F6E2F7E2F8E2F9E2F61
:101B10000E9407352196CFCFDF91CF911F910F9172
:101B2000FF90EF90DF90CF90BF90AF909F908F90FD
:101B30007F906F905F900895FC0114821582168249
:101B400017821082118212821382118610861386E8
:101B500012861586148617861686118A108A138AAD
:101B6000128A148A168A178A158A81E0818F828FD9
:101B7000138E87E0808F148E158E168E0895CF9366
:101B8000DF93EC010E949C0D8091B1058823B9F090
:101B900081508093B1058091B2052FE1289FC0014B
:101BA0001124FC01EE56FA4FDE0101900D922A95A8
:101BB000E1F78E569A4F0E949C0D1092B205CE010D
:101BC000DF91CF910895FB0101900020E9F7319753
:101BD000AF01461B570BDC01ED91FC910280F381B4
:101BE000E02D09948F929F92AF92BF920F931F9313
:101BF000CF93DF93CDB7DEB7A1970FB6F894DEBFD2
:101C00000FBECDBF19A2423008F44AE08E010F5D2D
:101C10001F4F842E912CB12CA12CA50194010E9460
:101C20004432E62FB901CA01EA3004F5E05DD8017B
:101C3000EE938D01232B242B252B79F790E080E068
:101C4000109729F0BD0180E294E00E94E30DA19677
:101C50000FB6F894DEBF0FBECDBFDF91CF911F91BD
:101C60000F91BF90AF909F908F900895E95CDFCF68
:101C7000CF92DF92EF92FF92CF93DF9397FF1BC03B
:101C80006B017C016DE280E294E00E947005EC0142
:101C900066277727CB016C197D098E099F094AE0D9
:101CA0000E94F20D8C0F9D1FDF91CF91FF90EF905E
:101CB000DF90CF9008954AE0DF91CF91FF90EF90B1
:101CC000DF90CF900C94F20D682F70E090E080E0F0
:101CD0004AE00C94F20DBC0180E294E00C94E30D18
:101CE0004F925F926F927F928F929F92AF92BF922C
:101CF000CF92DF92EF92FF920F931F93CF93DF93D8
:101D0000CDB7DEB7CB55D1400FB6F894DEBF0FBECE
:101D1000CDBFB82EE62E66ED73E0CE01805B9E4F00
:101D20000E940E3767EE73E0CE01895A9E4F0E94E3
:101D30000E37CF5ADE4F1881C155D140812F012E69
:101D4000000C990BC0970A97D8F5CE5ADE4F088140
:101D5000C255D140802F002E000C990B0E94F23604
:101D6000892B71F1C05BDE4F8881C055D140CC5AC0
:101D7000DE4F9881C455D140CB5ADE4F9883C5556C
:101D8000D140CD5ADE4F9881C355D140CC5ADE4F59
:101D90009883C455D140CD5ADE4F0883C355D140F6
:101DA000CE5ADE4F1883C255D140CF5ADE4F8883BA
:101DB000C155D14080E2C05BDE4F8883C055D14021
:101DC0008E01005B1E4FF12C30E2D32ED8018C9196
:101DD000082E000C990B0E94FD36F8018083082E16
:101DE000000C990B9C01205331092A30310570F009
:101DF0000E94F236892B51F4D801DC92B4E0FB1238
:101E000005C0CB5ADE4FD882C555D140F3940F5F41
:101E10001F4FE6E0FE12DACF86E0FE01E05BFE4FE8
:101E2000A9E1B4E001900D928A95E1F78E01095A7B
:101E30001E4F6801F4E0CF0ED11CD8018D918D01A9
:101E4000082E000C990B0E94FD36F8013197808313
:101E5000282F082E000C330B205331092A3031056E
:101E600068F08154823150F085E0EBE2F2E0DE016F
:101E7000A95ABE4F01900D928A95E1F7C016D1067E
:101E8000E1F684E0FE01E95AFE4FA4E1B4E00190DE
:101E90000D928A95E1F78B2D0E94D70B882E8093A7
:101EA0001304B2E0EB1609F4F4C1E3E0EE1609F412
:101EB000C3C2809119040E94C00B282F30E0A4E215
:101EC000B0E00E94CF326B017C0180911A040E9425
:101ED000C00BA7019601280F311D411D511DAAE01D
:101EE000B0E00E9485326B017C0180911B040E944E
:101EF000C00BA7019601280F311D411D511DABE1FB
:101F0000B0E00E9485326B017C0180911C040E942C
:101F1000C00B482F4A50550B9A01032E000C440B5E
:101F2000550B2C0D3D1D4E1D5F1DABE1B0E00E9419
:101F300085326B017C0180911D040E94C00BA82F8B
:101F4000AA50BB0B9D01032E000C440B550B2C0D0E
:101F50003D1D4E1D5F1DABE1B0E00E9485322B019F
:101F60003C0180911E040E94C00B8A50990B092EDF
:101F7000000CAA0BBB0B6C017D01C40CD51CE61C2C
:101F8000F71C20911404022E000C330B215431094C
:101F900046EF4203C001439F900D11242091160487
:101FA000821B910927FD93958D519F4F24EB289F0C
:101FB000A001299F500D112480911504082E000CBA
:101FC000990B815491096AE0689F9001699F300DD7
:101FD0001124420F531F80911704082E000C990BF7
:101FE000C097480F591F052E000C660B770B27E092
:101FF000440F551F661F771F2A95D1F7405C5F4F2E
:102000006F4F7F4F480D511D611D711DD701C601D6
:1020100014E0B695A795979587951A95D1F7C95B62
:10202000DE4F8883C754D140D701C6010CE0B69576
:10203000A795979587950A95D1F7CA5BDE4F888358
:10204000C654D140D701C60124E1B695A79597950E
:1020500087952A95D1F7CB5BDE4F8883C554D14055
:10206000842F8295880F880F807CC55BDE4F888324
:10207000CB54D140DB01CA0132E0B695A7959795C4
:1020800087953A95D1F7C65BDE4F8883CA54D14015
:10209000DB01CA01EAE0B695A79597958795EA9581
:1020A000D1F7C75BDE4F8883C954D140F2E1769502
:1020B000679557954795FA95D1F74F70C294A0EF61
:1020C000CA224C29C85BDE4F4883C854D140C45B48
:1020D000DE4F1882CC54D140C35BDE4F1882CD5402
:1020E000D140C25BDE4F1882CE54D140C15BDE4F7F
:1020F0001882CF54D140FE01EB5BFE4F2F012BE045
:10210000420E511C10E0C12CD12C76019E012D55A0
:102110003F4F619170E050E040E0CC0CDD1CEE1CC4
:10212000FF1CCB01042E02C0880F991F0A94E2F70E
:10213000880F892F881F990B8170C82A4601570183
:1021400081E5882283E5982280EDA82282EFB822DB
:1021500080E200E0982D91700927B694A794979497
:1021600087948150B9F7C901810F911DDC010C934F
:1021700081E0810F46015701B7E48B22BCE39B222B
:10218000B1E6AB22B4EEBB2290E200E0A82DA17034
:102190000A27B694A794979487949150B9F7820F21
:1021A000932F911DDC010C931E5F123A30F44F5FA8
:1021B0005F4F4830510509F0B0CF4E165F0609F069
:1021C000A8CF90E080E001E010E0682F47E050E009
:1021D000E0E0A62FB0E060FF07C0B801042E01C008
:1021E000660F0A94EAF7E62BBD0175956795415095
:1021F000510978F7E23A70F488248394912C8C0E7C
:102200009D1E8E0E911CF401D901A90FB11D4C9198
:1022100040839F5F923A18F48F5F8F3FB1F682EA56
:10222000FE013196D90101900D928A95E1F782EA7B
:10223000EDE1F1E0DE01119601900D928A95E1F752
:10224000FE013196A9016AE073E09191DA018D9166
:10225000AD01880F890FDB018D93BD012E173F075C
:10226000A1F7C55ADE4F0FB6F894DEBF0FBECDBF43
:10227000DF91CF911F910F91FF90EF90DF90CF9062
:10228000BF90AF909F908F907F906F905F904F9096
:102290000895809119040E94C00B282F30E0A4E219
:1022A000B0E00E94CF326B017C0180911A040E9441
:1022B000C00BA7019601280F311D411D511DAAE039
:1022C000B0E00E9485326B017C0180911B040E946A
:1022D000C00BA7019601280F311D411D511DABE117
:1022E000B0E00E9485326B017C0180911C040E9449
:1022F000C00BE82FEA50FF0B9F01032E000C440B8C
:10230000550B2C0D3D1D4E1D5F1DABE1B0E00E9435
:1023100085326B017C0180911D040E94C00B482F07
:102320004A50550B9A01032E000C440B550B2C0DF3
:102330003D1D4E1D5F1DABE1B0E00E9485322B01BB
:102340003C0180911E040E94C00B8A50990B092EFB
:10235000000CAA0BBB0B6C017D01C40CD51CE61C48
:10236000F71C912CB12CA12C8091DD039091DE0300
:10237000892BC9F44091E30350E0405A5549052E9A
:10238000000C660B770B97E0440F551F661F771FF5
:102390009A95D1F74E5B5F4F6F4F7F4F480D591D98
:1023A0006A1D7B1D33CE8091DF030E94040C282F11
:1023B00030E0A5E2B0E00E94CF322B013C018091D9
:1023C000E0030E94040CA3019201280F311D411D5E
:1023D000511DA5E2B0E00E9485322B013C018091A5
:1023E000E1030E94040CB301A201480F511D611DBD
:1023F000711D411580E858076105710580F050583E
:102400006109710987E0440F551F661F771F8A9580
:10241000D1F792E4890E911CA11CB11CBFCF07E03B
:10242000440F551F661F771F0A95D1F7A1E48A0E46
:10243000911CA11CB11CB2CF8091ED030E94C00B76
:10244000282F30E0A4E2B0E00E94CF326B017C0183
:102450008091EE030E94C00BA7019601280F311D49
:10246000411D511DAAE0B0E00E9485326B017C0144
:102470008091EF030E94C00BA7019601280F311D28
:10248000411D511DABE1B0E00E9485326B017C0122
:102490008091F0030E94C00BE82FEA50FF0B9F01D0
:1024A000032E000C440B550B2C0D3D1D4E1D5F1DC6
:1024B000ABE1B0E00E9485326B017C018091F103B9
:1024C0000E94C00B482F4A50550B9A01032E000C56
:1024D000440B550B2C0D3D1D4E1D5F1DABE1B0E0B7
:1024E0000E9485324B015C018091EC030E94C00B7D
:1024F0008A50990B092E000CAA0BBB0B6C017D01B5
:10250000C80CD91CEA1CFB1C86ED93E0DC010D9085
:102510000020E9F7FD01E75DF3405F019E2E83E2B5
:1025200092E00E946B0E8A2D0E94640E66ED73E0AD
:102530008E010F5F1F4FC8010E940E378091DD038F
:102540009091DE03009709F03EC0C5019927F8017C
:10255000E80FF91F2FE220832091E303243260F477
:10256000FE01E80FF91F13820196F801E80FF91F29
:102570002A3038F5205D2083F80101900020E9F72A
:102580003197E01BF10B4E2F50E070E060E04F57A9
:10259000504462457142E350FF0BE830F10508F00A
:1025A00042C1E752FD4E89819A81AB81BC810C9476
:1025B00031340B140C140114FA13F413E713D5136C
:1025C000FC12295CD8CF0197B9F68091DF0389838B
:1025D0008091E0038A838091E1038B838FE28C8377
:1025E000A6EDB3E0FE01359680E0891508F0C4CF72
:1025F0009D9191938F5FF9CF89849A84AB84BC8439
:10260000AA24BB240D811E812F813885040F151F3C
:10261000261F371F840F951FA61FB71F480D591D72
:102620006A1D7B1D402751276227732748015901E6
:10263000EEE0880C991CAA1CBB1CEA95D1F7280176
:102640003901F2E17694679457944794FA95D1F75B
:1026500084289528A628B728481959096A097B09AA
:1026600084279527A627B7274A015B01EBE0880C52
:10267000991CAA1CBB1CEA95D1F72A013B01F5E184
:102680007694679457944794FA95D1F784289528BF
:10269000A628B72888199909AA09BB090827192764
:1026A0002A273B274C015D01E7E0B694A794979455
:1026B0008794EA95D1F72C013D01F9E1440C551CB2
:1026C000661C771CFA95D1F784289528A628B72888
:1026D000081919092A093B0940275127622773273E
:1026E00058014901481959096A097B098427952726
:1026F000A627B7274A015B01E4E0880C991CAA1CB5
:10270000BB1CEA95D1F72A013B01FCE17694679462
:1027100057944794FA95D1F784289528A628B72886
:1027200088199909AA09BB09082719272A273B27CD
:102730004C015D01EEE0880C991CAA1CBB1CEA95BB
:10274000D1F7F2E1B695A79597958795FA95D1F7C8
:1027500088299929AA29BB29081B190B2A0B3B0B8D
:102760004027512762277327F22F232F302F012F65
:102770001F2F401B510B620B730B209113048FE32F
:1027800090E0A0E0B0E0821B9109A109B1096627A1
:10279000772717E0440F551F661F771F1A95D1F74B
:1027A000480F591F6A1F7B1F31CCE9850D811E819F
:1027B0002F813885040F151F261F371F840F951F83
:1027C000A61FB71F4E0F511D611D711D2BCF0D810F
:1027D0001E812F813885040F151F261F371F840F78
:1027E000951FA61FB71F1ECF0D811E812F81388513
:1027F0003327F1CF0D811E812F8138852227332782
:10280000EACF2D814A015B01820E911CA11CB11CF3
:1028100095018401E4CFBB27840F951FA61FB71F26
:102820008A019B01FFCE8A019B01DB01CA01FACE1E
:102830008EE292E00C946B0E60E372E00C94E30D78
:10284000CF93DF93BC0180E294E00E94E30DEC01A2
:1028500080E294E00E941C148C0F9D1FDF91CF91A9
:102860000895CF93DF93FC0144815581608171818C
:1028700080E294E00E94D004EC0180E294E00E94A7
:102880001C148C0F9D1FDF91CF910895CF93DF9380
:102890000E94640EEC0180E294E00E941C148C0FF4
:1028A0009D1FDF91CF9108950F931F93CF93DF93D7
:1028B000EC010E94AC048C01CE010E941C14800F1C
:1028C000911FDF91CF911F910F910895CF92DF92C9
:1028D000FF920F931F93CF93DF93F12CD5E080915C
:1028E0006C05F81608F076C069E172E080E294E0C9
:1028F0000E94AC040F2D10E0D09FF001D19FF00D8D
:102900001124E550FB4F85858A3010F40E9418147D
:10291000D09FC001D19F900D11249C0125503B4FA9
:102920006901F90185850E94640E89E292E00E94A6
:102930006B0EF601878590898436910510F40E940C
:102940001814D09FF001D19FF00D1124E550FB4FDA
:10295000878590890A9710F40E941814D09FC001AF
:10296000D19F900D11249C0125503B4F6901F90125
:102970006785708990E080E04AE00E94F20D89E26C
:1029800092E00E946B0EF60186858A3010F40E9458
:102990001814D09F6001D19FD00C1124F601E5508E
:1029A000FB4F86850E94640E89E292E00E946B0EC6
:1029B000F601E45FFA4FC081C7FF0AC0CF77CA3083
:1029C00010F40E9418148C2F0E944614F39487CFA1
:1029D000C0E0F7CF80E294E0DF91CF911F910F919B
:1029E000FF90DF90CF900C941C144F925F926F92E7
:1029F0007F928F929F92AF92BF92CF92DF92EF928F
:102A0000FF920F931F93CF93DF93CDB7DEB7A397BA
:102A10000FB6F894DEBF0FBECDBF6B017C012FB7A0
:102A2000F8948091020390910303A0910403B09164
:102A300005032FBFA7019B01280F391F4A1F5B1FEA
:102A400028A339A34AA35BA310E000E088EE482E38
:102A500083E0582E612C712C0E94C009882371F0EC
:102A6000CE0101960E94BF0D8FE1FE013196ACEDC3
:102A7000B4E001900D928A95E1F7EECF2FB7F8946C
:102A80008091020390910303A0910403B091050388
:102A90002FBF88A099A0AAA0BBA0881A990AAA0A49
:102AA000BB0A31EA83163FE09306A104B104A4F106
:102AB0006CE971E080E294E00E94AC04C501B401CD
:102AC000A30192010E946632CA01B9010E94380E28
:102AD00080E294E00E941C1468EE73E080E090E0D5
:102AE0000E947A0441E1C41647E2D406E104F104ED
:102AF00058F00F5F1F4F0530110534F081E090E072
:102B00000E94CB1510E000E080E294E00E942E05C8
:102B1000892B09F4A1CF05C0181419041A041B0449
:102B20009CF351EAC5165FE0D506E104F104E0F03C
:102B300064E971E080E294E0A3960FB6F894DEBFFA
:102B40000FBECDBFDF91CF911F910F91FF90EF90FE
:102B5000DF90CF90BF90AF909F908F907F906F90BD
:102B60005F904F900C945414A3960FB6F894DEBF68
:102B70000FBECDBFDF91CF911F910F91FF90EF90CE
:102B8000DF90CF90BF90AF909F908F907F906F908D
:102B90005F904F9008950F931F93CF93DF938C0115
:102BA000D0E0C0E061E08091B7020E94D80362E308
:102BB00070E080E090E00E94F51460E08091B70240
:102BC0000E94D80362E370E080E090E00E94F51478
:102BD00021960C171D0731F7DF91CF911F910F91AF
:102BE00008950F931F93CF93DF93EC018881998110
:102BF000009759F02A813B812617370730F081E092
:102C0000DF91CF911F910F9108958B016F5F7F4FDF
:102C10000E943536009759F0998388831B830A8375
:102C20002C813D81232B59F7FC011082E8CF80E0F5
:102C3000E7CFCF93DF93EC0188819981009711F062
:102C40000E94AC35198218821D821C821B821A8256
:102C5000DF91CF910895EF92FF920F931F93CF933F
:102C6000DF93EC017B018A01BA010E94F115811109
:102C70000BC0CE010E941916CE01DF91CF911F919A
:102C80000F91FF90EF9008951D830C83B701888109
:102C900099810E940E37F0CFCF93DF93EC01FB01B7
:102CA0008617970749F0608171816115710541F0C0
:102CB000448155810E942B16CE01DF91CF9108955A
:102CC0000E941916F9CFFC01118210821382128220
:102CD00015821482FB0101900020E9F73197AF01C2
:102CE000461B570B0C942B16FC0180819181009799
:102CF00011F00C94AC3508954F925F926F927F92D1
:102D00008F929F92AF92BF92EF92FF920F931F9379
:102D1000CF93DF93CDB7DEB7C054D1090FB6F89487
:102D2000DEBF0FBECDBF90E4EFEBF1E0DE01119608
:102D300001900D929A95E1F781116CC087E690E0C1
:102D400030E020E0032F122F44244A94542C320107
:102D50007801E80EF91E0E151F050CF060C0C801C1
:102D60000E941E3292012827D301C9018F70992732
:102D7000AA27BB27880F991F880F991F41E050E0B1
:102D80004C0F5D1F840F951FFC0180809180A280F5
:102D9000B38034E076946794579447943A95D1F78A
:102DA00084249524A624B724C8010E941E3290E0F2
:102DB00044E0959587954A95E1F7092E000CAA0BFA
:102DC000BB0B88259925AA25BB258F709927AA2793
:102DD000BB27880F991F880F991F21E030E02C0F27
:102DE0003D1F820F931FFC014080518062807380E1
:102DF00064E0B694A794979487946A95D1F7482491
:102E000059246A247B2440945094609470940F5FFA
:102E10001F4FA1CF8AE090E030E921E093CFC301BA
:102E2000B201C05CDF4F0FB6F894DEBF0FBECDBF5E
:102E3000DF91CF911F910F91FF90EF90BF90AF90D6
:102E40009F908F907F906F905F904F9008958F929A
:102E50009F92AF92BF92CF92DF92EF92FF920F9329
:102E60001F93CF93DF9300D000D0CDB7DEB7882378
:102E700009F44DC099EBE92E92E0F92E00E911E03A
:102E8000C8010E941E32F70181937F010F5F1F4F1F
:102E90000A39F1E01F07A1F781E00E947C164B017F
:102EA0005C010AE010E080E991E0080F191F6E0153
:102EB000F5E0CF0ED11CCE0101967C01081B190B49
:102EC000C8018E0D9F1D0E941E32F70181937F0164
:102ED000CE16DF06A9F781E049815A816B817C819A
:102EE000481559056A057B0509F080E00F900F90A1
:102EF0000F900F90DF91CF911F910F91FF90EF9066
:102F0000DF90CF90BF90AF909F908F9008958CEA04
:102F1000E82E83E0F82E10E000E0C8010E941E3287
:102F2000F70181937F010F5F1F4F07361105A9F746
:102F300080E00E947C164B015C0107E610E090E007
:102F400080E0B3CF2F923F924F925F926F927F9229
:102F50008F929F92AF92BF92CF92DF92EF92FF92A9
:102F60000F931F93CF93DF93CDB7DEB7A0970FB624
:102F7000F894DEBF0FBECDBF4C01180129014C8F64
:102F80005D8F6E8F7F8FE8A262E372E00E9463160E
:102F900090E4A92E22E4B22E3FE0C32ED12CE12CE6
:102FA000F12C00E010E09101A2016C8D7D8D8E8DE1
:102FB0009F8D0E9491349F938F937F936F935F9324
:102FC0004F933F932F9383E392E09F938F933E0120
:102FD000BEE06B0E711C7F926F920E9424379101AC
:102FE000A2016C8D7D8D8E8D9F8D0E948F349F935D
:102FF0008F937F936F935F934F933F932F93E3E36D
:10300000F2E0FF93EF932E0185E1480E511C5F9291
:103010004F920E942437F30101900020E9F7319785
:10302000AF0146195709B301C4010E942B161A8239
:1030300019821C821B821E821D82B4018E010F5FC9
:103040001F4FC8010E944C16F20101900020E9F7C1
:103050003197E419F5090FB6F894DEBF0FBECDBF66
:10306000B1F06D807E806E0E7F1EB301C8010E949C
:10307000F115882309F45CC029813A818D819E81F4
:10308000B201820F931F0E940E377E826D82B801BB
:10309000C4010E944C16C8010E947416B8A1B11157
:1030A0002DC0F401648075806114710409F044C07E
:1030B0001982F801CE010D9620E23191303331F4BE
:1030C000DF0111972C938E179F07B9F7F801019034
:1030D0000020E9F73197AF01401B510BB801C40143
:1030E0000E942B16F401208031802114310431F02C
:1030F0006480758021016114710491F5C401A0966A
:103100000FB6F894DEBF0FBECDBFDF91CF911F91F8
:103110000F91FF90EF90DF90CF90BF90AF909F9076
:103120008F907F906F905F904F903F902F90089579
:10313000C8010E941916ABCFFCE06F16710418F09D
:103140008CE0682E712CD4016D917C91A301C80193
:103150000E941537F801E60DF71D1082AACF28014D
:1031600082010F5F1F4FD2018C91082E000C990B2A
:103170000E94E630892B99F7B1E06B1A7108620C56
:10318000731CF3018081082E000C990B0E94E6301D
:10319000892B39F06414750420F0F1E06F1A71087E
:1031A000F0CFA3014F5F5F4F44195509D401159625
:1031B0005C934E9314972414350420F4B201C1019A
:1031C0000E940537D401ED91FC91119714968D91D1
:1031D0009C91E80FF91F108291CFEF920F931F93EC
:1031E000CF93DF9300D000D000D0CDB7DEB78250B0
:1031F0008A3080F4E82FF0E0E050F74E0C94313440
:103200003E195319B119B419B719DB19DE19111A7E
:10321000E419E11962E172E080E294E00E94AC04FA
:103220008091FF02909100038130910501F1C0F07F
:10323000029751F489E392E00E9420146AE072E060
:1032400080E294E00E94541426960FB6F894DEBFF4
:103250000FBECDBFDF91CF911F910F91EF900895D9
:103260008BE392E00E94201462E072E0E9CF8DE3EC
:1032700092E00E9420146AEF71E0E2CF63EF71E008
:1032800080E294E00E94AC0487EE93E00E94201458
:103290006CEE71E080E294E00E94AC048CEE93E06E
:1032A0000E942014D1CF8091F30490E09093C60245
:1032B0008093C5028091F20490E09093C4028093C1
:1032C000C3028091F10490E09093FC028093FB0292
:1032D00065EE71E080E294E00E94AC048091C5024A
:1032E0009091C6020A9714F40E9418146091C502C6
:1032F0007091C602072E000C880B990B0E94380EA5
:103300008FE392E00E946B0E8091C3029091C40201
:103310000A9714F40E9418146091C3027091C402B9
:10332000072E000C880B990B0E94380E8FE392E059
:103330000E946B0E8091FB029091FC020A9714F49C
:103340000E9418146091FB027091FC02072E000C81
:10335000880B990B0E94380E80E294E00E941C14A6
:1033600073CF6DED71E06CCF65ED71E069CF6EEC00
:1033700071E080E294E00E94AC0400916902109137
:103380006A0220916B0230916C0240916D02509163
:103390006E0260916F0270917002E12CCE01019675
:1033A0000E94A217CE0101960E943114CE0101960F
:1033B0000E94741649CF66EC71E042CF6EEB71E06B
:1033C0003FCF68EB71E03CCF61EB71E080E294E0CD
:1033D0000E94AC048EE480937C0062E070E080E0A8
:1033E00090E00E947A0480917A00806480937A0051
:1033F00080917A0086FDFCCF809178002091790041
:10340000322F282F032E000C440B550B64EB7BE26C
:1034100081E190E00E946632B901330F880B990B6D
:1034200099CF6AEA71E080E294E00E94AC04809156
:10343000C702811104C081E492E00E9420148091AF
:10344000C702813021F483E492E00E94201480912D
:10345000C702823021F485E492E00E94201480911A
:10346000C702833009F0F0CE82E592E019CF60E820
:1034700080E10E94350C60E088E00E94D80388E07B
:103480000C94ED1889E00E94ED189091B90280919A
:10349000C7029130F1F59091BA029430D1F58130A4
:1034A00091F028F08230C1F0833031F1089560E06E
:1034B00085E00E94240460E086E00E94240460E02D
:1034C00087E00C94240461E085E00E94240460E01D
:1034D00085E00E94D803EFCF60E085E00E942404DD
:1034E00060E086E00E94240461E087E00E942404FA
:1034F00060E087E00C94D80360E085E00E9424043B
:1035000061E086E00E94240460E086E00E94D80327
:10351000EBCF813079F028F0823071F08330B1F058
:10352000089560E085E00E94D80360E086E00E9494
:10353000D803DECF61E0F6CF60E085E00E94D803DB
:1035400060E086E00E94D80361E0D3CF60E085E0D0
:103550000E94D80361E0F5CF4091BF0250E04813CC
:1035600003C01092C70251E03091C002381304C06A
:1035700091E09093C70251E02091C102281304C04A
:1035800092E09093C70251E09091C202981304C058
:1035900083E08093C70208C0511106C0833690F4BF
:1035A000481304C01092C7020C94421A381302C088
:1035B00081E0EFCF281302C082E0EBCF981741F3F0
:1035C0008F5FECCF833681F782E6481749F03817D2
:1035D00059F0281771F0981751F08150B1F7842FE6
:1035E0001092C702381303C031E03093C70228138A
:1035F00003C022E02093C7029813D6CFC9CFE7EFCC
:10360000F3E081E09191911180E094E0E430F907DA
:10361000C9F7E091B602882389F0109269021092EE
:103620006A0210926B0210926C0210926D0210925C
:103630006E0210926F02109270020895EF5FED30EB
:1036400008F0E0E0AE2FB0E0A950BC4F8C91882389
:10365000A9F3E093B602E150EC3088F4F0E0ED5CC1
:10366000F44E0C943134641B711B7C1B871B921B22
:103670009D1BA81BB31BBE1BC91BD41BE41B80EFE7
:10368000809369028EEC80936A0281ED80936B02D5
:1036900010926C0210926D0210926E0210926F02E4
:1036A0001092700287E492E00E946B0E8091B60245
:1036B0008A3010F40E9418148091B6020E944614B9
:1036C0008091B6020C94AC1A80E5809369028CED6F
:1036D00080936A0285ED80936B0282E080936C0296
:1036E000D9CF80ED8093690287EB80936A0284EFE3
:1036F00080936B028AE0F2CF80E5809369028AE8CA
:1037000080936A0287E480936B0285E1E7CF80E1D2
:103710008093690287E580936A0286EF80936B024B
:1037200089E2DCCF80EA8093690287EB80936A02AA
:1037300080E780936B028CE3D1CF80EB80936902AA
:1037400087E780936A0286E080936B0284E5C6CFA8
:1037500080E58093690287EB80936A028BEE809309
:103760006B028BE6BBCF80E18093690288E1809396
:103770006A028EEB80936B028DE7B0CF80ED809371
:10378000690285E380936A0282E980936B0284E98F
:10379000A5CF80ED8093690285E080936A0285EA77
:1037A00080936B0287EA9ACF80E18093690281E57A
:1037B00080936A0287EC80936B028BE280936C02A9
:1037C00081E080936D0268CF80ED809369028AEA80
:1037D00080936A0288EC80936B0281EAEFCF82E0EB
:1037E00090E0909300038093FF0260E08091B70225
:1037F0000E94D8030E94371A81E00C94ED182F9292
:103800003F924F925F926F927F928F929F92AF9270
:10381000BF92CF92DF92EF92FF920F931F93CF93BD
:10382000DF93CDB7DEB76F970FB6F894DEBF0FBE4C
:10383000CDBF2F83388749875A876B877C878D87D1
:103840009E878090BB029090BC02A090BD02B09079
:10385000BE02A4E6B0E0A50194010E9485327B017E
:103860008C0120E030E0A9016F87F88A898B1A8BE0
:103870002B8B3C8B4D8B5E8BC501B4010E94FF30BE
:103880006C8F7D8F8E8F9F8F2F81388549855A85CC
:103890006B857C858D859E85211501EE300705EFB2
:1038A000400705E05007610571058105910509F0A4
:1038B00008F455C159016A017B018C0120E034E014
:1038C0004BE654EF64E170E080E090E00E949134B8
:1038D0002F8B388F498F5A8F0E94373419012A0154
:1038E0003B014C01AF84B888C988DA88E12CF12CFF
:1038F00000E010E00E9491342B8F9101A201B301EE
:10390000C4010E948F34B901CA010E94FF3020EF28
:103910003FEF4FE759E40E9460312C8D3D8D4E8D75
:103920005F8D0E944B330E94C43324E630E040E0B8
:1039300050E00E94443249015A01C501B4010E947D
:10394000FF3020EF3FEF4FE759E40E944B3320E078
:1039500030E040E053E40E9460310E94C4339B0198
:10396000AC018B8D482E512C712C612C87E0440CBE
:10397000551C661C771C8A95D1F7E2E05E1A610837
:103980007108420E531E641E751E97E0880C991C28
:10399000AA1CBB1C9A95D1F76FEF7FEF8FE090E0E8
:1039A0000E943432861A970AA80AB90A6FEF8AE190
:1039B0000E94350C6FEF8BE10E94350C662D637011
:1039C0008CE10E94350C9927872D762D652D8DE190
:1039D0000E94350C642D8EE10E94350C6A2D606FBB
:1039E0008FE10E94350C99278B2D7A2D692D80E26D
:1039F0000E94350C682D81E20E94350C8F88988CCE
:103A0000A98CBA8C04E0801A9108A1080EEFB00AC4
:103A100047E0880C991CAA1CBB1C4A95D1F760E0B2
:103A20008AE20E94350C61E08BE20E94350C6A2D1F
:103A30006370612B8CE20E94350C99278B2D7A2DB7
:103A4000692D8DE20E94350C682D8EE20E94350CA6
:103A500060E08FE20E94350C60E080E30E94350C4C
:103A600060E081E30E94350C8091610290916202D6
:103A7000A0916302B09164022F81388549855A85EF
:103A8000281B390B4A0B5B0BDA01C901B7FF07C0D2
:103A9000B095A095909581959F4FAF4FBF4F813ABC
:103AA0009648A140B10524F060EA81EB0E94350CF4
:103AB0006FE480E10E94350C4F814093610258858C
:103AC00050936202898580936302EA85E0936402E1
:103AD000EB84E0926502FC84F09266020D8500930F
:103AE00067021E851093680261E088E00E94D80397
:103AF00063EA71E080E294E00E94AC04E12C0F8163
:103B0000188529853A854B855C856D857E85CE0136
:103B100001960E94A217CE0101960E943114CE0197
:103B200001960E94741687E00E94ED186F960FB6FA
:103B3000F894DEBF0FBECDBFDF91CF911F910F91E3
:103B4000FF90EF90DF90CF90BF90AF909F908F90BD
:103B50007F906F905F904F903F902F9008952F81AE
:103B6000388549855A856B857C858D859E8507E0DE
:103B70000E94EE3459016A017B018C0120E034E09F
:103B80004BE654EF64E170E080E090E00E949134F5
:103B90002F8B388F498F5A8F60E070E080E090E083
:103BA0000E94373419012A013B014C01AF84B888C7
:103BB000C988DA88E12CF12C00E010E00E949134F1
:103BC0002B8F9101A201B301C4010E948F34B9016E
:103BD000CA010E94FF3020EF3FEF4FE759E40E94F7
:103BE00060312C8D3D8D4E8D5F8D0E944B330E9438
:103BF000C43324E630E040E050E00E944432490102
:103C00005A0110E79ACE3F924F925F926F927F9245
:103C10008F929F92AF92BF92CF92DF92EF92FF92DC
:103C20000F931F93CF93DF93D82FEAE0F3E082EA5C
:103C3000DF011D928A95E9F76D2F8091F5030E94AF
:103C4000700E61E08091B7020E94D8038FB7F8949C
:103C500040900203509003036090040370900503AA
:103C60008FBF8AE0882E83E0982EBBEA4B0EB2E02D
:103C70005B1E611C711CC0E092E9392EF401419178
:103C80004F01439DA0011124952F990F990B9A0183
:103C9000492F592F692F792F892FA0906902B09051
:103CA0006A02C0906B02D0906C02E0906D02F090BE
:103CB0006E0200916F02109170020E9407350E94FF
:103CC000FF1B2FB7F8948091020390910303A091FA
:103CD0000403B09105032FBF84159505A605B7050C
:103CE00030F480E294E00E942E05892B51F36DE8B8
:103CF00071E080E294E00E94AC048091B6028A30C8
:103D000010F40E9418148091B6020E94640E89E299
:103D100092E00E946B0E8091E6031C2F863009F41E
:103D20001695D33009F04DC01F5A143608F44EC012
:103D3000812F0E94461406E010E0F090B70261E087
:103D40008F2D0E94D80365E070E080E090E00E9433
:103D50007A0460E08F2D0E94D80362E370E080E077
:103D600090E00E947A040150110939F780E294E052
:103D70000E942E058C01892B61F5CF5FFBEA4F0E67
:103D8000F2E05F1E611C711CC23A09F077CF0E94FD
:103D9000371A60E08091B7020E94D803C801DF9112
:103DA000CF911F910F91FF90EF90DF90CF90BF9038
:103DB000AF909F908F907F906F905F904F903F90CB
:103DC00008951A3008F0B1CF0E9418140E941814F8
:103DD000AFCF01E010E0DBCF2F923F924F925F9286
:103DE0006F927F928F929F92AF92BF92CF92DF920B
:103DF000EF92FF920F931F93CF93DF93CDB7DEB770
:103E0000A5970FB6F894DEBF0FBECDBF8091DD033E
:103E10009091DE03029721F122E028A38091B50260
:103E2000811121C06CE471E080E294E0A5960FB6A8
:103E3000F894DEBF0FBECDBFDF91CF911F910F91E0
:103E4000FF90EF90DF90CF90BF90AF909F908F90BA
:103E50007F906F905F904F903F902F900C945414F0
:103E600031E038A3DBCF109200031092FF02E7EF9E
:103E7000F3E024E034E081E09191911180E02E178D
:103E80003F07D1F7882309F445C060E271E080E282
:103E900094E00E94541481E09091D6039134E1F5AE
:103EA0009091D7039134C1F59091D8039033A1F547
:103EB0009091D903913481F59091DA03913461F5B1
:103EC0009091DB03913441F569E071E080E294E088
:103ED0000E9454146AEE70E080E294E00E94541450
:103EE000A5960FB6F894DEBF0FBECDBFDF91CF9180
:103EF0001F910F91FF90EF90DF90CF90BF90AF9008
:103F00009F908F907F906F905F904F903F902F90F9
:103F10000C94EF1B80E0C0CF8111DCCF1092B60271
:103F20000E94FF1A2091690230916A0240916B024F
:103F300050916C0260916D0270916E0280916F02DF
:103F400090917002205F314F4F4F5F4F6F4F7F4F07
:103F50008F4F9F4F2093690230936A0240936B0208
:103F600050936C0260936D0270936E0280936F02A7
:103F7000909370020E94371A81E00E94ED1831E69A
:103F8000232E32E0332E4CE2842E99249394A12CDC
:103F9000B12C54E1452E512C612C712C80E294E01F
:103FA0000E942E05892B09F0FFC10E94C0098823B9
:103FB00009F421C21092FE021092FD02CE01019678
:103FC0000E94BF0D8FE1FE013196ACEDB4E001908F
:103FD0000D928A95E1F783E00E94ED1880E294E06B
:103FE0000E942E05892B09F0DFC18091FA0483FF1E
:103FF000F4C182FB002700F982FFEFC18091F30436
:1040000090E09093C6028093C5021091F204812F34
:1040100090E09093C4028093C302E090F104F12CED
:10402000F092FC02E092FB028091E4039091E503A0
:10403000019751F56091E0047091E1048091E204F0
:104040009091E3040E94013125E93FEB46ED53E3F3
:104050000E9460316AA37BA38CA39DA36091DC04C2
:104060007091DD048091DE049091DF040E940131A3
:1040700025E93FEB46ED53E30E9460312AA13BA1C5
:104080004CA15DA10E945C0CE114F10409F069C12E
:1040900010FD21C08091F603813131F58091E60356
:1040A00090E0ACEEB3E0EAE5F2E040E09F012A5593
:1040B0003240281739075CF43D9121913217B1F352
:1040C000402FF4CF9093FE028093FD0267CF411101
:1040D00029C0112339F184E00E94ED1882E00E948A
:1040E000ED180E94661442C18031E1F08F3009F072
:1040F00023C1E091B602E250E930A0F4F0E0ED57C0
:10410000FF4D0C9431348C204C21562160216A21C2
:1041100074217E2188219221112321F0143111F084
:104120001832C9F68091F3039091F403019709F0D6
:104130004BC06091E6047091E704072E000C880BD9
:10414000990B0E9401312AE037ED43E25CE30E94C3
:1041500060316B017C016091E4047091E504072EED
:10416000000C880B990B0E9401319B01AC01C70127
:10417000B6010E94DF320E94C4336B017C01A501AD
:1041800094010E944432822F0E94D70B182F2CE2F8
:1041900031E0129FC001139F900D1124092E000CD5
:1041A000AA0BBB0BA7019601281B390B4A0B5B0B13
:1041B000CA01B901A30192010E944432822F0E94D8
:1041C000D70B89A31093F50388A10E94031E892BA6
:1041D00009F0EAC08091E603863009F4D0C0ACEE65
:1041E000B3E0EAE5F2E08D9181932E163F06D9F710
:1041F0008091B60290E08C30910561F0FC01E850AE
:10420000FC4F01962191211100E08C309105CCF3F7
:10421000002389F02091070430910804409109049B
:1042200050910A04A8EEB3E00E9485320E94F51472
:104230008BE00E94ED180E94FF1A209169023091D4
:104240006A0240916B0250916C0260916D02709114
:104250006E0280916F0290917002205F314F4F4F3C
:104260005F4F6F4F7F4F8F4F9F4F20936902309367
:104270006A0240936B0250936C0260936D027093DC
:104280006E0280936F029093700268EB7BE080E097
:1042900090E00E94F51489CE123009F443CF163114
:1042A00009F440CF1A3209F016CF3CCF163009F48A
:1042B00039CF1A3109F436CF1E3209F00CCF32CF84
:1042C000183009F42FCF1C3109F42CCF103309F02A
:1042D00002CF28CF1A3009F425CF1E3109F422CF9E
:1042E000123309F0F8CE1ECF1C3009F41BCF103268
:1042F00009F418CF143309F0EECE14CF1E3009F4B0
:1043000011CF123209F40ECF163309F0E4CE0ACFE2
:10431000103109F407CF143209F404CF183309F02F
:10432000DACE00CF123109F4FDCE163209F4FACEFE
:104330001A3309F0D0CEF6CE8F3008F0CCCE9AE00A
:10434000853010F0855094E1191718F0191B1917D2
:10435000D8F790E0880F991F1817190609F4E2CED4
:10436000BACE49E3E416F1040CF4B5CE82E090E055
:104370000E94CB1564E670E080E090E08ACF68E2AE
:1043800073E280E090E00E947A048091F3039091C0
:10439000F403019719F439A13093F50383E00E94E7
:1043A000031E892B09F41BCFA5960FB6F894DEBF28
:1043B0000FBECDBFDF91CF911F910F91FF90EF9076
:1043C000DF90CF90BF90AF909F908F907F906F9035
:1043D0005F904F903F902F9008950E94661481E067
:1043E00090E00E94CB1585E00E94ED1860E971E035
:1043F00080E090E04ECF8091FD029091FE02019608
:1044000081364AEE940708F45DCE1092FE021092B7
:10441000FD0266ED70E080E294E00E94541469ECC5
:1044200070E08DEB94E00E94541460ED77E080E042
:1044300090E00E94F514B2CDCF92DF92EF92FF92FE
:10444000CF938091B50281110BC068E870E080E2E3
:1044500094E0CF91FF90EF90DF90CF900C945414A4
:1044600081E090E0909300038093FF0220910B0481
:1044700030910C0440910D0450910E0460910F0492
:10448000709110048091110490911204209369029C
:1044900030936A0240936B0250936C0260936D02FA
:1044A00070936E0280936F02909370020E94F333B8
:1044B0006B017C012CEF30E441E451E50E94FA30BD
:1044C000CEE087FFCFE028E430E341E850E5C701C4
:1044D000B6010E94FA3087FDCDE02AE93BEA4AEFB7
:1044E0005FE4C701B6010E94FA3087FDCCE02EEFF1
:1044F0003DED43EB5FE4C701B6010E94FA3087FD52
:10450000CBE02EE63CE249E45FE4C701B6010E943D
:10451000FA3087FDCAE02EE039E442E35FE4C701E8
:10452000B6010E94FA3087FDC9E02DE134EE46E184
:104530005FE4C701B6010E94FA3087FDC8E02AEFA8
:104540003CE64DEE5EE4C701B6010E94FA3087FDFD
:10455000C7E02FE139EA49EC5EE4C701B6010E94E9
:10456000FA3087FDC6E026E83EE041E95EE4C70197
:10457000B6010E94FA3087FDC5E02CE33BE649E432
:104580005EE4C701B6010E94FA3087FDC4E023E66D
:1045900038E44CEC5DE4C701B6010E94FA3087FDB7
:1045A000C3E027E93AE542E55DE4C701B6010E94B0
:1045B000FA3087FDC2E029E132EC49E55CE4C7014D
:1045C000B6010E94FA3087FDC1E021E235EC4BE7ED
:1045D0005BE4C701B6010E94FA3087FDC0E08C2F72
:1045E0000E94AC1A2091690230916A0240916B02DC
:1045F00050916C0260916D0270916E0280916F0219
:10460000909170020E94FF1B61E08091B7020E94AE
:10461000D80381E00E94ED1886E0CF91FF90EF90E3
:10462000DF90CF900C94ED18FF920F931F93CF93D0
:10463000DF93EC01F62E08811981C8010E941E3219
:10464000F81621F06F2DC8010E942632CE01DF91AD
:10465000CF911F910F91FF900895CF92DF92EF922B
:10466000FF920F931F93CF93DF9300D000D000D021
:10467000CDB7DEB7D82E2CEAE22E23E0F22E10E0E2
:1046800000E08823D9F039EBE32E32E0F32E00E985
:1046900011E01A830983F70161917F01CE01019630
:1046A0000E9414230F5F1F4F0A39F1E01F0789F79B
:1046B0008AE0E82EF12C00E911E013C01A83098387
:1046C000F70161917F01CE0101960E9414230F5FD3
:1046D0001F4F0736110591F797E6E92EF12C10E0F0
:1046E00000E08D2D0E947C1669837A838B839C83E6
:1046F000E00EF11E6E01F5E0CF0ED11C8E010F5FB2
:104700001F4FE01AF10AC701800F911F9E838D830E
:10471000F80161918F01C6010E941423C016D106D1
:1047200091F726960FB6F894DEBF0FBECDBFDF918E
:10473000CF911F910F91FF90EF90DF90CF90089550
:104740001F920F920FB60F9211242F933F938F93C6
:104750009F93AF93BF938091020390910303A09125
:104760000403B09105033091010326E0230F2D3798
:1047700058F50296A11DB11D2093010380930203F9
:1047800090930303A0930403B09305038091060361
:1047900090910703A0910803B09109030196A11D10
:1047A000B11D8093060390930703A0930803B09371
:1047B0000903BF91AF919F918F913F912F910F90DE
:1047C0000FBE0F901F90189529E8230F0396A11D87
:1047D000B11DD2CF1F920F920FB60F9211242F93BB
:1047E0003F934F935F936F937F938F939F93AF9379
:1047F000BF93EF93FF9380E294E00E944E05FF91F8
:10480000EF91BF91AF919F918F917F916F915F9148
:104810004F913F912F910F900FBE0F901F901895C1
:104820001F920F920FB60F9211242F938F939F9385
:10483000EF93FF93E0913004F09131048081E09197
:104840003604F091370482FD1BC0908180913904B9
:104850008F5F8F7320913A04821741F0E091390401
:10486000F0E0E05EFB4F958F80933904FF91EF916C
:104870009F918F912F910F900FBE0F901F901895C1
:104880008081F4CF1F920F920FB60F9211242F93B5
:104890003F934F935F936F937F938F939F93AF93C8
:1048A000BF93EF93FF93E091B302F091B40230977E
:1048B00049F0A685B7858585968D91FF14C09C919A
:1048C0008923A1F4FF91EF91BF91AF919F918F91B7
:1048D0007F916F915F914F913F912F910F900FBEFC
:1048E0000F901F9018959C91892361F7A389B48933
:1048F0009C918589809589238C93868997890197D6
:10490000F1F7608D718DA685B785558538E020E07B
:10491000CB010197F1F7822F90E095958795282F8D
:104920004C91452309F02068315091F7868D81FD27
:1049300020958091B20290E001968F739927309173
:10494000B102381799F0A091B202B0E0AF58BD4F54
:104950002C938093B202828D938D0197F1F7A389F6
:10496000B4898C919589892B8C93ACCF868D81608D
:10497000868FF1CFCF92DF92EF92FF9210922304B5
:104980001092220498EEC92E93E0D92EE12CF12C3E
:10499000C0922404D0922504E0922604F0922704C9
:1049A00083E092E0909321048093200485EC90E0D2
:1049B00090932D0480932C0484EC90E090932F042A
:1049C00080932E0480EC90E0909331048093300427
:1049D00081EC90E0909333048093320482EC90E079
:1049E000909335048093340486EC90E090933704E0
:1049F000809336041092390410923A0410923B04CA
:104A000010923C048DE695E00E949C0D82E995E0B1
:104A10000E949C0D1092FC041092FD041092FE0462
:104A20001092FF04109200051092010510920205E9
:104A300010920305109204051092050510920605C8
:104A4000109207058DE695E00E949C0D10926C0572
:104A5000109291058CED94E00E949C0D1092C00480
:104A60001092BF04C092C104D092C204E092C30469
:104A7000F092C40485E192E09093BE048093BD045B
:104A80001092D4041092D3041092D6041092D5043C
:104A90001092D8041092D7041092DA041092D9041C
:104AA0006091DB046E7F6D7F6093DB0466956170BF
:104AB00081E0682783E00E94D80361E083E00E94E0
:104AC0002404E6EDF4E0E491E093CD04E2ECF4E0BC
:104AD000E491F0E0EE0FFF1FEB54FB4F85919491B2
:104AE0009093CF048093CE0460E082E00E9424047F
:104AF0008091DB0481FD04C061E082E00E94D80364
:104B000082E08093C904E5EDF4E0E491E093CA0407
:104B1000E1ECF4E0E491F0E0EE0FFF1FE555FB4F10
:104B2000859194919093CC048093CB04FF90EF9067
:104B3000DF90CF900895CF93DF93CDB7DEB7C55602
:104B4000D1090FB6F894DEBF0FBECDBF789484B5FF
:104B5000826084BD84B5816084BD85B5826085BD79
:104B600085B5816085BD80916E00816080936E0007
:104B700010928100809181008260809381008091F9
:104B800081008160809381008091800081608093AA
:104B900080008091B10084608093B1008091B0006A
:104BA00081608093B00080917A00846080937A0065
:104BB00080917A00826080937A0080917A008E7F63
:104BC00080937A0080917A00806880937A001092B6
:104BD000C1008CE58093B8001092B9008FEF8093EC
:104BE000BB0010926400E0913004F091310482E047
:104BF0008083E0912C04F0912D041082E0912E042A
:104C0000F0912F0487E6808310923804E0913404F9
:104C1000F091350486E08083E0913204F091330412
:104C2000808180618083E0913204F091330480813F
:104C300088608083E0913204F09133048081806841
:104C40008083E0913204F091330480818F7D8083F2
:104C500080ED97E0A0E0B0E08093240490932504D9
:104C6000A0932604B09327041092D8041092D7047E
:104C70001092D6041092D5041092D4041092D3044A
:104C80008DEC90E09093DA048093D9049091C9045C
:104C9000963108F047C025E530E03093D4042093E6
:104CA000D3042BEC30E03093D6042093D50420E9D4
:104CB00030E03093D8042093D7042091680084E03A
:104CC000983048F031E09E3008F430E081E001C0D7
:104CD000880F3A95EAF7822B809368002DE630E042
:104CE000983050F02BE630E09E3030F02CE630E08B
:104CF000963110F030E020E03093D1042093D004BE
:104D0000292F30E0983008F09DC181E001C0880F64
:104D10009A95EAF78093D2048091D9049091DA04AD
:104D20000197F1F78091D7049091D804892B49F12C
:104D3000E091B302F091B40224E0ED3BF20709F1F7
:104D4000309739F0A389B4899C918589809589230E
:104D50008C938091DB048E7F8093DB041092B202EF
:104D60001092B1028DEB94E09093B4028093B30261
:104D7000E091D004F091D10480819091D204892BEC
:104D8000808381E00E94271781112AC067E173E0C8
:104D900080E294E00E9454146DEA72E080E294E0B4
:104DA0000E94541481E08093B9028CE298E7ADE749
:104DB000B1E08093BB029093BC02A093BD02B0937C
:104DC000BE0286E18093BA0282E08093BF0283E054
:104DD0008093C00284E08093C10286E08093C20287
:104DE00080E00E942717882309F439C18091D403F9
:104DF0009091D503909300038093FF021092DC03FF
:104E00001092EB031092F20384E090E09093B802CA
:104E10008093B70261E572E080E294E00E9454144E
:104E20008091B902813009F0B7C18091BA02843013
:104E300009F0B2C160E085E00E94240460E086E0F1
:104E40000E94240460E087E00E94240461E08091D5
:104E5000B7020E94240461E088E00E94240469E310
:104E600072E080E294E00E94AC0481E00E94640E53
:104E70008FE392E00E946B0E8EE00E94461460E287
:104E800072E080E294E00E94541480E190E00E947D
:104E9000CB1580E4EFEBF1E0DE01119601900D926D
:104EA0008A95E1F724E630E088248A94982C54010E
:104EB000E0E4E0937C0080917A00806480937A0043
:104EC00080917A0086FDFCCF8091780090917900E6
:104ED000B501A40148274F70552766277727440F4F
:104EE000551F440F551FA1E0B0E0AC0FBD1F4A0F86
:104EF0005B1FDA014D915D916D917C91F4E0B69468
:104F0000A79497948794FA95D1F7482559256A254F
:104F10007B25A4E095958795AA95E1F78F70992751
:104F2000092E000CAA0BBB0B84279527A627B727B1
:104F30008F709927AA27BB27880F991F880F991F61
:104F4000A1E0B0E0AC0FBD1F8A0F9B1FDC018D906C
:104F50009D90AD90BC9014E07695679557954795D8
:104F60001A95D1F784269526A626B7268094909484
:104F7000A094B0942150310909F09BCF89288A2848
:104F80008B2811F00E94703080E68093B5020E9459
:104F90002A0C80EC0E94150C182F0E94220C18314C
:104FA00079F082E68093B5020E942A0C84EC0E947C
:104FB000150C182F0E94220C183111F01092B50216
:104FC0008091FF02909100038130910509F4FDC0AA
:104FD00008F4FEC0029709F400C14E01BAE08B0E3E
:104FE000911C3E012DE0620E711C22E0A22EB12C1C
:104FF00080E294E00E942E05892B09F468C7CC2436
:10500000C394D12C92E0F92E80E294E00E942E0508
:10501000181619060CF05BC780E294E00E940C059C
:105020008A3009F4DDC08D3079F3E091FA02E13382
:1050300058F791E09E0F9093FA02F0E0E853FD4F8D
:105040008083E2CF9E3040F42850310981E001C0D6
:10505000880F2A95EAF75ECE2E503109F7CF61E02E
:1050600070E0709300036093FF0287E58093AC03C8
:1050700083E58093AD0380E58093AE0382E5809362
:10508000AF0320E22093B00384E58093B10388E569
:105090008093B2031092B30342E050E05093D503E3
:1050A0004093D40381E48093D6038093D70390E3A5
:1050B0009093D8038093D9038093DA038093DB0322
:1050C0001092DC037093E5036093E4038093E7039D
:1050D0008093E8039093E9039093EA031092EB0323
:1050E0008093EC038093ED039093EE039093EF0392
:1050F0008093F0038093F1031092F20384E0809395
:10510000E6031092F4031092F30387E18093F50312
:1051100080E18093F6035093DE034093DD032093F8
:10512000DF032093E0032093E1031092E20381E088
:105130008093E303E7EFF3E0119264E0E730F607D2
:10514000D9F781E08093FC038093FD0380EE91E02A
:10515000A0E0B0E08093070490930804A0930904B2
:10516000B0930A0410920B048AEC80930C048AE931
:1051700080930D048BE380930E0410920F04109221
:105180001004109211041092120468E772E080E299
:1051900094E00E94541438CE61E085E00E9424041B
:1051A00061E086E00E94240461E087E00E9424041C
:1051B00060E085E00E94D80360E086E00E94D803AA
:1051C00060E087E00E94D80341CE0E941C2205CFF8
:1051D0001092B6020E94EC1E00CF0E94EF1BFDCE83
:1051E000E091FA02F0E0E853FD4F10828091C8028E
:1051F0008B3509F0BAC38091CC028D3509F0B5C367
:105200008091C902833409F049C08091CA02833475
:10521000D9F48091CB028D34B9F48091CE028335DC
:1052200009F0A6C38091D002833511F40E941C229C
:105230008091D002873511F40E94EC1E8091D0023B
:105240008E3411F40E94EF1B8091CA02833589F4D9
:105250008091CB02853469F48091CE02833549F484
:1052600080E00E942D236FE474E080E294E00E94CD
:1052700054148091CA02833589F48091CB028C3416
:1052800069F48091CE02833549F48091D002813453
:1052900009F072C31092C7020E94421A8091C9029B
:1052A0008F3409F047C18091CA02843599F5809105
:1052B000CB02803579F58091CE02833509F06EC33B
:1052C0008091D00289838091D1028A838091D20219
:1052D0008B838091D3028C838091D4028D831E8234
:1052E000BE016F5F7F4FCE018F5B9F4F0E946316A1
:1052F000CE018F5B9F4F0E943D0D2093070430939A
:1053000008044093090450930A04CE018F5B9F4F19
:105310000E9474168091CA02833591F48091CB0269
:105320008D3471F48091CE02833509F097C380915A
:10533000D002833509F083C3D092D503C092D40341
:105340008091CA028234F9F48091CB028434D9F47A
:105350009091D0028091D1022091CE0299838A83CC
:105360001B821C82233509F095C3CE0101960E9451
:10537000C830FC01E950FC4F91E08091D3028534A4
:1053800009F090E090838091CA028C3409F08BC0C0
:105390008091CB02833409F075C08091CE028335B1
:1053A00009F0A2C38091D002873409F05FC0D09287
:1053B000E503C092E40361E374E080E294E00E94BC
:1053C00054148091FA0483FF51C082FF4FC0809132
:1053D000F30490E09093C6028093C5028091F2049A
:1053E00090E09093C4028093C3028091F10490E016
:1053F0009093FC028093FB026091E0047091E104C1
:105400008091E2049091E3040E94013125E93FEB91
:1054100046ED53E30E9460311B012C016091DC04D6
:105420007091DD048091DE049091DF040E940131CF
:1054300025E93FEB46ED53E30E946031A201910163
:105440000E945C0C6AE274E080E294E00E94AC048A
:1054500087EE93E00E94201463E274E080E294E01F
:105460000E94AC048CEE93E00E9420148091D00244
:105470008D3421F41092E5031092E4038091CA0266
:105480008C3489F48091CB02803569F48091CE020E
:10549000833509F041C38091D002863309F038C3C7
:1054A00076E07093E6038091CA02803591F4809192
:1054B000CB02873571F48091CE02833509F03FC36A
:1054C0008091D0028E3409F032C31092F40310920E
:1054D000F3038091CA028435B9F48091CB028335FD
:1054E00099F48091CE02833509F03DC38091D002BA
:1054F00089838091D1028A831B821C82CE0101960E
:105500000E94C8308093F6038091CA02803591F4DE
:105510008091CB02833571F48091CE02833509F0FE
:1055200042C38091D002803509F02EC3D092DE03B1
:10553000C092DD038091C902843409F01BC18091BF
:10554000CA02833419F58091CB028335F9F4809136
:10555000CE02833509F043C38091D0028093D603F5
:105560008091D1028093D7038091D2028093D80397
:105570008091D3028093D9038091D4028093DA037F
:105580008091D5028093DB031092DC038091CA02E4
:105590008335C9F48091CB028634A9F48091CE0280
:1055A000833509F027C38091D00289838091D1028D
:1055B0008A838091D2028B831C82CE0101960E9445
:1055C000C8308093E3038091CA028035B9F480919A
:1055D000CB02863499F48091CE02833509F021C341
:1055E0008091D0028093DF038091D1028093E00309
:1055F0008091D2028093E1031092E2038091CA026B
:105600008C34D9F48091CB028433B9F48091CE02EA
:10561000833509F011C38091D0028093E703809114
:10562000D1028093E8038091D2028093E9038091B4
:10563000D3028093EA031092EB038091CA028C3468
:1056400019F58091CB028633F9F48091CE0283352F
:1056500009F0FDC28091D0028093EC038091D102C9
:105660008093ED038091D2028093EE038091D30268
:105670008093EF038091D4028093F0038091D50250
:105680008093F1031092F2038091CA028E34B1F438
:105690008091CB028D3491F48091CE02833509F054
:1056A000E1C2A0EDB2E0ECEAF3E08D91819363ED0D
:1056B00073E06E177F07C9F71092D3038091CA0277
:1056C0008035B9F48091CB02843499F48091CE0274
:1056D000833509F0D2C28091D00289838091D102B2
:1056E0008A831B821C82CE0101960E94C83080935F
:1056F000F5038091CA028734E9F58091CB028634A4
:10570000C9F58091CE02833509F0C8C2A0EDB2E0A0
:10571000FE0131968D918193E615F705D9F71D8627
:10572000BE016F5F7F4FCE018F5B9F4F0E9463165C
:10573000CE018F5B9F4F0E943D0D20930B04309351
:105740000C0440930D0450930E0460930F04709367
:1057500010048093110490931204CE018F5B9F4F2D
:105760000E9474168091FF0290910003019711F43A
:105770000E941C228091C902863409F0F6C08091F3
:10578000CA028035D9F48091CB028E34B9F480916D
:10579000CE02873499F461EC73E080E294E00E94D9
:1057A000AC040E9418144AE064EF73E080E090E0DB
:1057B0000E94F20D80E294E00E941C148091CA02C3
:1057C0008834C9F48091CB028635A9F48091CE0249
:1057D000833509F08BC28091D00289838091D102F8
:1057E0008A838091D2028B831C82CE0101960E9413
:1057F000C8308093B9028091CA02883411F5809133
:10580000CB028235F1F48091CE02833509F085C256
:105810008091D00289838091D1028A838091D202C3
:105820008B831C82CE0101960E94C8308093BA02FD
:1058300060E280E294E00E94700580E294E00E94C1
:105840001C148091CA028335A9F48091CB0286355D
:1058500089F48091CE02873469F46CEA73E080E2C7
:1058600094E00E94AC040E9418140E94181481E075
:105870000E9446148091CA02833599F48091CB022C
:10588000823579F48091CE02873459F465EA73E069
:1058900080E294E00E94AC040E9418148EE00E9402
:1058A00046148091CA028C34D1F48091CB028035A9
:1058B000B1F48091CE02833509F067C28091D202A3
:1058C00089838091D3028A831B828091D0028234A3
:1058D00009F44DC20CF038C2813409F441C2809100
:1058E000CA02823569F58091CB02863449F58091F0
:1058F000CE02833509F0CAC2A0EDB2E0FE013196B6
:105900008D9181938E169F06D9F71A86BE016F5F1F
:105910007F4FCE018F5B9F4F0E946316CE018F5B3E
:105920009F4F0E943D0D2093BB023093BC024093D9
:10593000BD025093BE02CE018F5B9F4F0E94741632
:105940008091CA02833589F48091CB02853469F451
:105950008091CE02833549F481E00E942D2365E3D6
:1059600073E080E294E00E9454141092FA024CCB4F
:1059700081E00E94ED1868CC823421F481E08093AC
:10598000C7028ACC833419F4F092C70285CC8434E0
:1059900009F082CC63E06093C7027ECC68E474E0D7
:1059A00080E294E00E94AC04809107049091080486
:1059B000A0910904B0910A0480319742A105B10574
:1059C00010F40E9418148091070490910804A0918B
:1059D0000904B0910A04883E9340A105B10510F472
:1059E0000E9418148091070490910804A091090462
:1059F000B0910A0484369105A105B10510F40E9406
:105A000018148091070490910804A0910904B091A2
:105A10000A040A97A105B10510F40E9418146091B8
:105A20000704709108048091090490910A044AE0E7
:105A30000E94F20D80E294E00E941C146BCC87352A
:105A400029F41092D5031092D4037ACC8E3409F045
:105A500077CCB092D503A092D40372CC61E474E009
:105A600080E294E00E94AC048091D4039091D5032D
:105A70008130910561F040F0029709F061CC89E333
:105A800092E00E9420145CCC8BE392E0FACF8DE38D
:105A900092E0F7CF6AE374E080E294E00E94AC0405
:105AA000CE0101960E94C8308C011C01990F440858
:105AB00055086AE0261631044104510410F40E948E
:105AC00018144AE0C201B1010E94F20DF801E95038
:105AD000FC4F8081882329F08EE492E00E942014FC
