:100000000C94F6020C941E030C941E030C94E8242A
:100010000C94E8240C94E8240C941E030C941E0306
:100020000C941E030C941E030C941E030C941E03CC
:100030000C941E030C941E030C941E030C941E03BC
:100040000C9446240C941E030C94B6240C94902417
:100050000C941E030C941E030C941E030C941E039C
:100060000C941E030C941E035A444100565447003E
:10007000524D4300475356004753540047534100E5
:10008000474C4C00474741007B4D494E7D486172CB
:100090006477617265204552524F5221204E6F2085
:1000A00053693533353120504C4C20646576696393
:1000B0006520666F756E64206F6E207468652049D8
:1000C000324320627573732100494F373820494FFE
:1000D000383820494F373720494F383720494F3774
:1000E0003620494F383620494F373520494F38356B
:1000F00020494F383420494F393420494F38332074
:10010000494F393320494F383220494F3932204A3C
:100110004F303220494F383120494F3931204A4F32
:10012000303120494F373020494F383020494F393E
:100130003020494F363420504E333120504E343128
:1001400020504E323020504E333020504E3430202C
:10015000504D323920504D333920504D32382050D7
:100160004D3338204C4B3136204C4B3135204C4BE5
:100170003134204C4B3133204C4B3233204C4B32FA
:1001800034204C4B3235204C4B3236204C4B3336DE
:10019000204C4B3335204C4B3334204C4B333320E5
:1001A0004C4B3434204C4B3435204C4B3436204CA3
:1001B0004B3437204C4B3438204C4B3538204C4B8B
:1001C0003537204C4B3536204C4B353500245043C9
:1001D000415331302C332A3146007B4D494E7D202E
:1001E000526573657474696E6720475053007B4D88
:1001F000494E7D43616E206E6F742073746172741A
:10020000205753505220426561636F6E007B4D4909
:100210004E7D43616C6C205369676E206E6F742055
:10022000736574007B4D494E7D5472616E6D6973C8
:1002300073696F6E206973206E6F7420656E6162E2
:100240006C6564206F6E20616E792062616E64005F
:100250007B4D494E7D4861726477617265204552DD
:10026000524F5221204E6F20536935333531205083
:100270004C4C2064657669636520666F756E6420FA
:100280006F6E207468652049324320627573732154
:10029000007B5457537D20007B4D50537D20300010
:1002A0007B4D50537D20007B5446517D20007B4C7C
:1002B00050497D20007B4D56437D20007B544343B5
:1002C0007D007B544F4E7D2046007B544F4E7D2059
:1002D00054007B5446517D20007B474C437D204693
:1002E000007B474C437D2054007B47544D7D2000CC
:1002F0007B474C367D20007B474C347D20007B546F
:100300004F4E7D2054007B544F4E7D2046007B5441
:100310004F4E7D2046007B43434D7D20007B47535D
:10032000497D20007B4D494E7D204D6F6469666993
:100330006564206279204A4A31424458007B4D4925
:100340004E7D204669726D776172652076657273A5
:10035000696F6E20007B4D494E7D205A6163685461
:10036000656B2057535052205069636F207472613F
:100370006E736D6974746572007B4D494E7D204EBD
:100380006F207573657220646174612077617320DA
:10039000666F756E642C2073657474696E67206473
:1003A000656661756C742076616C756573007B4D54
:1003B000494E7D20596F75206E65656420746F20ED
:1003C00072756E20666163746F72792073657475DF
:1003D0007020746F20636F6D706C65746520746835
:1003E0006520636F6E66696775726174696F6E2CE4
:1003F000206775657373696E67206F6E2063616C2B
:100400006962726174696F6E2076616C75657320C4
:10041000666F72206E6F77007B4D494E7D204E6F68
:1004200020666163746F7279206461746120666F05
:10043000756E642021007B4D494E7D2046616374BA
:100440006F72792064617461207361766564007BEA
:100450004652467D20007B464C507D204420007B48
:10046000464C507D204320007B464C507D2042204E
:10047000007B464C507D204120007B464C507D2027
:1004800041203035007B464C507D204120303700E4
:100490007B464C507D2041203038007B464C507DBF
:1004A0002041203039007B4653527D20007B46534B
:1004B000567D20007B4648527D20007B4648567D75
:1004C00020007B46504E7D20007B4447467D200027
:1004D0007B4450447D20007B444E4D7D20007B4476
:1004E0004C367D20007B444C347D20007B445046BC
:1004F0007D20007B4453467D20007B4443537D2078
:10050000007B4F50537D20007B4F54537D20007B58
:100510004F50577D20007B4F4C507D20007B4F4C2F
:10052000437D20007B444C367D20007B444C347D51
:1005300020007B4F4C4320477D20007B4F42447D71
:1005400020007B4F534D7D20007B4F54507D200079
:100550007B4D494E7D20436F6E666967757261748D
:10056000696F6E207361766564007B4D494E7D2016
:10057000526573657474696E6720475053000000BC
:100580000000240027002A000000000800020100EB
:100590000003040700000000000000008400800049
:1005A0007C007800740070006C006800000000009F
:1005B00023002600290000000000250028002B0051
:1005C00004040404040404040202020202020303F9
:1005D0000303030301020408102040800102040801
:1005E000102001020408102060258E3011241FBE47
:1005F000CFEFD8E0DEBFCDBF12E0A0E0B1E0E0EB8E
:10060000F4E702C005900D92AA35B107D9F725E0AD
:10061000AAE5B2E001C01D92A93BB207E1F712E0E2
:10062000C5EFD2E004C02197FE010E94B734C43F59
:10063000D107C9F70E9441260C944B3A0C94000054
:10064000FC0180918F0581111AC0118210821382E2
:10065000128280919105826080939105109290059D
:1006600091E06D3209F090E08091910590FB80F966
:10067000809391056D3209F06EC080E008956C3270
:1006800099F580919005811103C081E080939005D8
:1006900082819381892B99F05AE08091900591E0B5
:1006A000980F90939005481750F022813381529F04
:1006B000C001539F900D112493838283EECF9091BC
:1006C0009105892F817090FF44C02281338131953B
:1006D0002195310933832283208131813195219500
:1006E00031093183208308956E3221F481E08093B3
:1006F0009005C3CF80919005811112C02081318176
:100700004AE0429FC001439F900D1124062E000C29
:10071000770B60537109680F791F71836083ADCFC8
:1007200091E0980F90939005481708F4A6CF228186
:1007300033814AE0429FC001439F900D1124062E51
:10074000000C770B60537109680F791F7383628304
:1007500094CF81E008956C3209F497CF6E3271F630
:10076000C5CF813311F0813421F483E080938B0570
:1007700008C0803321F08E3411F0863541F4109298
:100780008B0580918C05816080938C050895823360
:1007900011F0843411F484E0E9CF833311F487E05D
:1007A000E5CF843311F486E0E1CF853311F485E0A1
:1007B000DDCF863311F0853449F781E0D7CFE09162
:1007C0008F05E930F0F4F0E0E851FC4F0C94B734B9
:1007D000F10303040804100415041D0422042A0470
:1007E000340410928A058C3261F0909191059260E8
:1007F0009093910580539AE0899F802D11248093D6
:10080000850581E00895909185059053890FF7CF74
:1008100080539AE0899F802D112480938405F1CF25
:10082000909184059053890FF8CF80539AE0899F67
:10083000802D112480938305E4CF909183059053FC
:10084000890FF8CF8C32E9F680918C058460809313
:100850008C05D7CF8C32C1F380539AE0899F802DCD
:10086000112480938A05CDCF8C3271F390918A0543
:100870009053890F80938A05E7CFFC018091910501
:100880008E7F8093910580918F05811106C06C3217
:1008900069F06053608381E008956C32E1F38081F8
:1008A00060539AE0899F600D1124F4CF80E0089591
:1008B00090E0FC01E857FA4F2491FC01EC52FA4F0A
:1008C0003491FC01E054FA4FE491EE23C9F0222365
:1008D00039F0233001F1A8F4213019F1223029F147
:1008E000F0E0EE0FFF1FEA54FA4FA591B4918FB7D5
:1008F000F894EC91611126C030953E233C938FBF54
:1009000008952730A9F02830C9F0243049F78091A4
:1009100080008F7D03C0809180008F77809380005E
:10092000DFCF84B58F7784BDDBCF84B58F7DFBCFE0
:100930008091B0008F778093B000D2CF8091B000CB
:100940008F7DF9CF3E2BDACFCF93DF9390E0FC0180
:10095000EC52FA4F249180549A4FFC0184918823E1
:10096000D1F090E0880F991FFC01E258FA4FA59151
:10097000B491FC01EA54FA4FC591D49161110EC0B3
:100980009FB7F8948C91E22FE0958E238C93288169
:10099000E223E8839FBFDF91CF9108958FB7F8944A
:1009A000EC91E22BEC938FBFF6CF3FB7F894809198
:1009B000070390910803A0910903B0910A0326B59B
:1009C000A89B05C02F3F19F00196A11DB11D3FBF87
:1009D000BA2FA92F982F8827BC01CD01620F711D56
:1009E000811D911D42E0660F771F881F991F4A9550
:1009F000D1F708958F929F92AF92BF92CF92DF92DC
:100A0000EF92FF924B015C010E94D5046B017C01C7
:100A10000E94D5046C197D098E099F09683E7340B8
:100A200081059105A8F321E0821A9108A108B10877
:100A300088EEC80E83E0D81EE11CF11C81149104DD
:100A4000A104B10429F7FF90EF90DF90CF90BF9001
:100A5000AF909F908F900895EF92FF920F931F9306
:100A6000CF93DF938C017B01D0E0C0E0F701EC0F66
:100A7000FD1F6491662361F0D801ED91FC91019016
:100A8000F081E02DC8010995892B11F02196EECF58
:100A9000CE01DF91CF911F910F91FF90EF900895BC
:100AA000AF92BF92CF92DF92EF92FF920F931F937C
:100AB000CF93DF936C017B018B01040F151FEB01BA
:100AC0005E01AE18BF08C017D10759F06991D60171
:100AD000ED91FC910190F081E02DC6010995892BE3
:100AE00079F7C501DF91CF911F910F91FF90EF90A2
:100AF000DF90CF90BF90AF900895FC01538D448D4F
:100B0000252F30E0842F90E0821B930B541710F0B8
:100B1000CF96089501970895FC01918D828D9817C5
:100B200061F0A28DAE0FBF2FB11D5D968C91928D9D
:100B30009F5F9F73928F90E008958FEF9FEF0895CE
:100B4000FC01918D828D981731F0828DE80FF11D97
:100B5000858D90E008958FEF9FEF0895FC01918DB2
:100B6000228D892F90E0805C9F4F821B91098F73AB
:100B70009927089581E294E00E94AE0521E0892B37
:100B800009F420E0822F089580E090E0892B29F07D
:100B90000E94BA0581110C9400000895FC01A48DF7
:100BA000A80FB92FB11DA35ABF4F2C91848D90E08F
:100BB00001968F739927848FA689B7892C93A08972
:100BC000B1898C91837080648C93938D848D9813FC
:100BD00006C00288F389E02D80818F7D808308958F
:100BE000EF92FF920F931F93CF93DF93EC0181E07D
:100BF000888F9B8D8C8D98131AC0E889F989808124
:100C000085FF15C09FB7F894EE89FF896083E88956
:100C1000F98980818370806480839FBF81E090E048
:100C2000DF91CF911F910F91FF90EF900895F62ED5
:100C30000B8D10E00F5F1F4F0F731127E02E8C8D6F
:100C40008E110CC00FB607FCFACFE889F9898081B4
:100C500085FFF5CFCE010E94CE05F1CFEB8DEC0FD5
:100C6000FD2FF11DE35AFF4FF0829FB7F8940B8FD1
:100C7000EA89FB8980818062CFCFCF93DF93EC013B
:100C8000888D8823B9F0AA89BB89E889F9898C9174
:100C900085FD03C0808186FD0DC00FB607FCF7CF30
:100CA0008C9185FFF2CF808185FFEDCFCE010E9430
:100CB000CE05E9CFDF91CF9108952091B302309115
:100CC000B4022817390771F49091B1028091B202F1
:100CD000981741F0E091B102F0E0EF58FD4F8081AC
:100CE00090E008958FEF9FEF08950895EF92FF929F
:100CF0000F931F93CF93DF93DC015C96ED90FC90F4
:100D00005D97E114F10479F481E090E013969C93EF
:100D10008E93129790E080E0DF91CF911F910F9119
:100D2000FF90EF9008955196ED91FC915297509657
:100D30008C915097982F90950FB75E962C915E9757
:100D4000122F127021FD6095F8942081112319F162
:100D5000282B2083E7012197F1F728E0462F50E068
:100D6000308160FF1AC0382B3083E7012197F1F7FB
:100D7000BA0175956795215089F7112381F080811B
:100D8000892380830FBF5C968D919C910197F1F729
:100D900081E090E0C1CF2923DCCF3923E5CF9081DA
:100DA000892BEFCF2091B3023091B4022817390775
:100DB00061F48091B2022091B10290E0805C9F4F7B
:100DC000821B91098F739927089590E080E0089520
:100DD0002091B3023091B40228173907B9F49091E9
:100DE000B1028091B202981789F0E091B102F0E06F
:100DF000EF58FD4F80812091B10230E02F5F3F4FCF
:100E00002F7333272093B10290E008958FEF9FEF67
:100E1000089590E080E008958F929F92AF92BF92E4
:100E2000CF92DF92EF92FF926B017C01BC01A60191
:100E300082E076956795579547958A95D1F7D701C2
:100E4000C60124E0B695A795979587952A95D1F781
:100E5000840F951FA61FB71F4C015D0134E0B694A7
:100E6000A794979487943A95D1F7880D991DAA1D58
:100E7000BB1D892E9A2EAB2EBB24880E991EAA1E4E
:100E8000BB1EC501AA27BB27880E991EAA1EBB1E22
:100E9000A3E0B0E0A50194010E940B33A7019601E5
:100EA000261B370B480B590BABE0B0E00E940B330D
:100EB000E5E09695879577956795EA95D1F7680D62
:100EC000791D8A1D9B1DFF90EF90DF90CF90BF9002
:100ED000AF909F908F900895CF92DF92EF92FF9204
:100EE0001F93CF93DF93EC01162F80918F05811113
:100EF0000BC0188219821A821B8210929005809171
:100F000091058260809391051E3291F11C3209F0A7
:100F100064C080919005882359F1809190058430B8
:100F200009F07CC0288139814A815B81A4E6B0E068
:100F30000E940B33688379838A839B83C880D9801E
:100F4000EA80FB80C701B601660F771F881F991FD3
:100F50006F5F7F4F8F4F9F4F0E940C07C60ED71EAB
:100F6000E81EF91EC882D982EA82FB8281E02AC08B
:100F700081E0809390052981822F82958F702F7058
:100F80003AE0839F200D11248A8181112C59888198
:100F9000982F92959F708F703AE0939F800D112447
:100FA0009CE3299F90011124820F932F911D092EFC
:100FB000000CAA0BBB0B88839983AA83BB831E32C8
:100FC00049F480E0DF91CF911F91FF90EF90DF9087
:100FD000CF9008951C3209F4A0CF80919005811123
:100FE00043C088819981AA81BB8134E0880F991F11
:100FF000AA1FBB1F3A95D1F7412F110F550B405334
:101000005109052E000C660B770B842B952BA62B14
:10101000B72B88839983AA83BB83D3CF853039F4D8
:10102000288139814A815B81AAE0B0E081CF863096
:1010300009F484CF08F09ACF288139814A815B81F5
:10104000A8EEB3E0833009F473CF823019F4A0E145
:10105000B7E26ECF813009F071CF60EA76E881E0C7
:1010600090E00E94BA3266CF8F5F80939005873000
:10107000C0F4288139814A815B81AAE0B0E00E94F6
:101080000B33212F110F330B205331096901330F1B
:10109000EE08FF08DC01CB018C0D9D1DAE1DBF1DB0
:1010A000B8CF873009F08DCFC880D980EA80FB8027
:1010B000C701B601660F771F881F991F6F5F7F4FAB
:1010C0008F4F9F4F0E940C076C0D7D1D8E1D9F1D25
:1010D00019334CF06E5F7F4F8F4F9F4F688379833A
:1010E0008A839B836ECF1433CCF36F5F7F4F8F4F18
:1010F0009F4FF4CF1F93CF93DF931F92CDB7DEB7EF
:10110000682F1091FC04153009F484C0163009F4DE
:1011100003C1113009F025C1E0918E05E150E9309D
:1011200008F01FC1F0E0E956F74F0C94B734A0085F
:101130009F09AD08D008B309E208EA08B109F70829
:10114000862F0E94DF030F90DF91CF911F910895AA
:101150008EE695E00E946C0704C18091910582FFA4
:1011600000C180918F058111FCC0633509F0F9C081
:1011700080916E0590916F05A0917005B0917105F9
:10118000B095A095909581959F4FAF4FBF4F80939D
:101190006E0590936F05A0937005B0937105E1C043
:1011A0006C3249F480918F05811105C080919105C1
:1011B0008B7F809391058091910582FFD2C082E759
:1011C00095E0C8CF80918F058111CBC0862F0E94FA
:1011D000B103C7C082E895E00E943D0490918C0560
:1011E0009068882309F4BDC090938C05ACCF42E091
:1011F00086E795E00E942003882309F4B2C021E02D
:1012000090918F05911101C020E090918C0520FBF9
:1012100094F9EACF80916D05843108F0A2C0209145
:101220008E05243008F49DC0482F50E023702230F2
:1012300079F02330E9F1819FC0011124213029F098
:10124000875F9A4F0E943D048CC0865F9A4FFACF09
:10125000149FF001159FF00D11246C3201F1809163
:1012600091058E7F8093910540918F05862F90E0A8
:10127000E450FB4F411104C0C097908B878771C029
:10128000278530894AE0429FB001439F700D1124A9
:1012900060537109680F791F708B678762C0E35FC5
:1012A000FA4F90819F7790838F5F80936D0559C02F
:1012B00041505109149FF001159FF00D1124E35F77
:1012C000FA4F6C32F1F080818F778983CE010196DD
:1012D0000E943D0480916D058150990B189FF0018B
:1012E000199FF00D1124E35FFA4F99819F77808158
:1012F0008078892B8083809191058260809391050D
:1013000030C091E080918F05811101C090E0808113
:1013100090FB87F9808325C0E0918E05E150E9308C
:1013200000F5F0E0EA56F64F0C94B734A008E20856
:101330009F09AD08D008B309DD09EF09020A8091C1
:101340008F0581110AC091E06C3209F490E0809120
:10135000910590FB82F9809391058091910582FD22
:10136000F7CE81E0F0CE9091910592FB882780F92D
:1013700092FFF7CF90918F059111F3CF90918C054B
:10138000986090938C05673561F740917205509194
:101390007305609174057091750570956095509511
:1013A00041955F4F6F4F7F4F409372055093730588
:1013B0006093740570937505C6CE43E08AE795E0A7
:1013C0000E942003882369F221E090918F059111FA
:1013D00001C020E090918C0520FB95F905CF42E0FB
:1013E0008EE795E00E942003882309F4BACF21E01C
:1013F00090918F05911101C020E090918C0520FB08
:1014000096F9F2CE80918F05823041F150F4882315
:10141000D1F0813009F0A5CF809187058053680F06
:101420001AC0843041F110F1853009F09ACF8091D3
:1014300089058053680F6093890580918C058260CF
:1014400080938C058ECF6C3209F48BCF60538AE089
:10145000689F602D11246093870583CF60538AE0D5
:10146000689F602D1124609388057BCF809188054B
:101470008053680FF8CF60538AE0689F602D112475
:10148000609389056ECF9F92AF92BF92CF92DF9209
:10149000EF92FF920F931F93CF93DF9311E0D1E070
:1014A00003E092E0F92E8EEB94E00E94D206892BA5
:1014B00009F4CEC18EEB94E00E94E806C82F80911B
:1014C000050590910605A0910705B09108050196C4
:1014D000A11DB11D8093050590930605A0930705F6
:1014E000B0930805C432B9F48091910584FF05C01A
:1014F0008F7E8093910510926D0510928D0510924C
:10150000FC04D093920510928F05809191058D7FF8
:1015100080939105C8CF80919205823079F5CA32C7
:1015200029F40093920510928F05BDCF80EE8C0FA9
:101530008F3550F480918D058C2780938D058C2FED
:101540000E947A08811107C010928C051092FC0449
:1015500010929205A8CFCC3259F4809191058D7FDD
:101560008093910580918E058F5F80938E05DBCFF0
:1015700080918F058F5F80938F0595CF813009F023
:1015800061C090918D059C2790938D05CC3269F4B4
:101590009091FC049923D1F210928C0580938E05D2
:1015A00010928F05F09292057ECFE0908F0581E03A
:1015B0008E1508F05EC18EEFB82EBE0C8091FC0433
:1015C000882309F43DC08150E82FF0E0EE0FFF1FA3
:1015D000E456FA4F2591349150E040E0CB2CD12CC9
:1015E00061E0680F70E0F901EC0DFD1DE491CE178C
:1015F00009F43CC1CE170CF4A9CFAA24A394A80ED9
:10160000873009F4A3CFFB01E40FF51FEE0FFF1F96
:10161000E456FA4FA591B49190E080E08B1558F410
:10162000F901E80FF91F9490FD01E80FF91FE4910B
:1016300001969E1699F34F5F5F4F8A2D9D01D3CF80
:1016400080E0C2CF833009F0F3C0C0628FE98C0F15
:10165000863038F5C75590918F0580918D05911191
:1016600022C0D0938F0590E024E0959587952A9528
:10167000E1F7C817190609F416CF8091010590917A
:101680000205A0910305B09104050196A11DB11DAD
:101690008093010590930205A0930305B093040580
:1016A00053CFC053D8CF8F7021E08C1301C020E0FE
:1016B0008C13E3C08091910581FF09C08D7F8093D9
:1016C00091059F5F90938F058CE20E947A0880912C
:1016D000FD049091FE04A091FF04B09100050196D5
:1016E000A11DB11D8093FD049093FE04A093FF04FF
:1016F000B09300059091FC0421E0963009F020E0C1
:101700008091910520FB84F98093910510929205B8
:101710002091B205211191C080918C0580FF0CC0F1
:1017200020918B053091B10530FF04C03091B00598
:10173000321710F42093B00581FF0CC0209187056B
:101740002093AC05209188052093AD052091890553
:101750002093AE0582FF10C0209185052093AA0535
:10176000209184052093A905209183052093A80545
:1017700020918A052093AF0583FF09C088E0EEE63B
:10178000F5E0A3E9B5E001900D928A95E1F780912B
:101790008C0584FF10C040917605509177056091CB
:1017A00078057091790540939B0550939C05609353
:1017B0009D0570939E0586FF10C040917E05509157
:1017C0007F0560918005709181054093A30550933A
:1017D000A4056093A5057093A60585FF10C04091F0
:1017E0007A0550917B0560917C0570917D05409351
:1017F0009F055093A0056093A1057093A20587FFF4
:1018000004C0809182058093A70580918C0520916A
:10181000B105822B8093B105963009F044CE109229
:10182000B4058091B20581113ECE1093B2053BCE36
:10183000811139CE1092FC0436CE886080939105D8
:101840001092B3058091B20581508093B20564CFA8
:101850008091B205DF91CF911F910F91FF90EF9092
:10186000DF90CF90BF90AF909F9008958F5F80934F
:10187000FC04E394E0928F0516CE2111FECE13CE28
:10188000282F082E000C330B205331092A30310544
:1018900010F480530895803231F09FEB980F9A3105
:1018A00020F48753089584E208958FEF0895CF932D
:1018B000DF93CDB7DEB763970FB6F894DEBF0FBEE8
:1018C000CDBF982F83E1EAE0F1E0DE0111960190AF
:1018D0000D928A95E1F7892F9D3308F08CE3FE0184
:1018E0003196AE014C5E5F4F2191921708F0822F26
:1018F000E417F507C9F763960FB6F894DEBF0FBE7D
:10190000CDBFDF91CF910895803269F0282F082E46
:10191000000C330B205331092A30310510F4805369
:1019200008958753089584E2089561E08FE00E944E
:10193000A40461E08FE00E94580468EC70E080E04D
:1019400090E00E94FA0460E08FE00E94A40468EC3A
:1019500070E080E090E00C94FA044091BF0250E007
:10196000481303C01092C70251E03091C0023813EF
:1019700004C091E09093C70251E02091C102281366
:1019800004C092E09093C70251E09091C202981374
:1019900004C083E08093C702089551112FC083369D
:1019A00088F4481303C01092C7020895381302C088
:1019B00081E0F0CF281302C082E0ECCF981749F302
:1019C0008F5FEDCF8336D1F482E6481749F03817A0
:1019D00059F0281771F0981751F08150B1F7842F02
:1019E0001092C702381303C031E03093C7022813A6
:1019F00003C022E02093C702981759F208958093FC
:101A0000BB0084E88093BC008091BC0087FFFCCFC2
:101A10008091B900887F089584E98093BC0080910B
:101A2000BC0084FDFCCF089584EA8093BC008091C3
:101A3000BC0087FFFCCF8091B900887F0895CF93C9
:101A4000DF93D82FC62F0E94140D8830B9F48091EF
:101A5000B502880F0E94FF0C883191F48D2F0E94EF
:101A6000FF0C883279F48C2F0E94FF0C883261F4CD
:101A70000E940C0D80E0DF91CF91089581E0FBCFB3
:101A800082E0F9CF83E0F7CF84E0F5CF4F925F9209
:101A90006F927F928F929F92AF92BF92CF92DF927E
:101AA000EF92FF92CF93DF93CDB7DEB72C970FB6AF
:101AB000F894DEBF0FBECDBF4B015C01CA01B90176
:101AC00020E030E044E353E40E9465332B013C0105
:101AD00020E030E040EA51E40E94D1330E944334D8
:101AE0006B01072E000C880B990B0E94873120E0B8
:101AF00030E040EA51E40E94E6319B01AC01C301B1
:101B0000B2010E9464332B013C0120E030E040E050
:101B10005FE30E94E6310E94433469837A838B83BA
:101B20009C8320E030E044EB52E4C501B4010E9404
:101B300065334B015C0120E030E040E251E40E945B
:101B4000D1330E9443346D837E838F8398872D81A8
:101B50003E81B901330F880B990B0E94873120E039
:101B600030E040E251E40E94E6319B01AC01C50146
:101B7000B4010E9464334B015C010E9443346987C5
:101B80007A878B879C8731E4C30EEDEAF3E0C3AE1E
:101B90008D818F5B84AF2981205D25AF9985905D14
:101BA00096AF17AEC092ED038093EE032093EF0340
:101BB0009093F00329813A81B901330F880B990B77
:101BC0000E9487319B01AC010E9465339B01AC01EF
:101BD000C301B2010E94643320E030E040E451E4EC
:101BE0000E94E6310E9443346F5B6093F1032985C4
:101BF0003A85B901330F880B990B0E9487319B01FD
:101C0000AC01C501B4010E94643320E030E040EC37
:101C100051E40E94E6310E9443346F5B6093F2030B
:101C20001092F3032C960FB6F894DEBF0FBECDBF13
:101C3000DF91CF91FF90EF90DF90CF90BF90AF906A
:101C40009F908F907F906F905F904F9008955F92DC
:101C50006F927F928F929F92AF92BF92CF92DF92BC
:101C6000EF92FF920F931F93CF93DF934C01DC0110
:101C700014966D907C90D0E0C0E020E030E040E031
:101C800050E060E070E080E090E0C615D70571F1AB
:101C9000D401ED91FC91512C309719F0EC0FFD1F00
:101CA0005080E0EDE50DEA3008F5EAE0AE2EB12C0B
:101CB000C12CD12CE12CF12C00E010E00E94BD34AD
:101CC00059016A017B018C01852D550C990BC09738
:101CD000E92FEE0FEE0B9C014E2F5E2F6E2F7E2F05
:101CE0008E2F9E2F0E948D352196CFCFDF91CF91E1
:101CF0001F910F91FF90EF90DF90CF90BF90AF902A
:101D00009F908F907F906F905F900895FC01148258
:101D10001582168217821082118212821382118616
:101D20001086138612861586148617861686118AE3
:101D3000108A138A128A148A168A178A158A81E0F1
:101D4000818F828F138E87E0808F148E158E168E72
:101D50000895CF93DF93EC010E94860E8091B20527
:101D60008823B9F081508093B2058091B3052FE1AB
:101D7000289FC0011124FC01ED56FA4FDE010190AD
:101D80000D922A95E1F78D569A4F0E94860E109279
:101D9000B305CE01DF91CF910895FB0101900020A2
:101DA000E9F73197AF01461B570BDC01ED91FC9130
:101DB0000280F381E02D09948F929F92AF92BF929F
:101DC0000F931F93CF93DF93CDB7DEB7A1970FB6D5
:101DD000F894DEBF0FBECDBF19A2423008F44AE02E
:101DE0008E010F5D1F4F842E912CB12CA12CA501CB
:101DF00094010E94CA32E62FB901CA01EA3004F503
:101E0000E05DD801EE938D01232B242B252B79F750
:101E100090E080E0109729F0BD0181E294E00E94FB
:101E2000CD0EA1960FB6F894DEBF0FBECDBFDF91E9
:101E3000CF911F910F91BF90AF909F908F90089579
:101E4000E95CDFCF682F70E090E080E04AE00C941E
:101E5000DC0ECF92DF92EF92FF92CF93DF9397FF4A
:101E60001BC06B017C016DE281E294E00E94F005F1
:101E7000EC0166277727CB016C197D098E099F0934
:101E80004AE00E94DC0E8C0F9D1FDF91CF91FF90E6
:101E9000EF90DF90CF9008954AE0DF91CF91FF90CF
:101EA000EF90DF90CF900C94DC0EBC0181E294E0C7
:101EB0000C94CD0E4F925F926F927F928F929F9271
:101EC000AF92BF92CF92DF92EF92FF920F931F9348
:101ED000CF93DF93CDB7DEB7CB55D1400FB6F89493
:101EE000DEBF0FBECDBFB82EE62E67ED73E0CE018C
:101EF000805B9E4F0E94943768EE73E0CE01895A52
:101F00009E4F0E949437CF5ADE4F1881C155D14061
:101F1000812F012E000C990BC0970A97D8F5CE5A45
:101F2000DE4F0881C255D140802F002E000C990B46
:101F30000E947837892B71F1C05BDE4F8881C055D4
:101F4000D140CC5ADE4F9881C455D140CB5ADE4F98
:101F50009883C555D140CD5ADE4F9881C355D140A5
:101F6000CC5ADE4F9883C455D140CD5ADE4F0883FA
:101F7000C355D140CE5ADE4F1883C255D140CF5AF7
:101F8000DE4F8883C155D14080E2C05BDE4F88833D
:101F9000C055D1408E01005B1E4FF12C30E2D32E94
:101FA000D8018C91082E000C990B0E948337F80100
:101FB0008083082E000C990B9C01205331092A3094
:101FC000310570F00E947837892B51F4D801DC92EA
:101FD000B4E0FB1205C0CB5ADE4FD882C555D140C4
:101FE000F3940F5F1F4FE6E0FE12DACF86E0FE01AA
:101FF000E05BFE4FAAE1B4E001900D928A95E1F713
:102000008E01095A1E4F6801F4E0CF0ED11CD80191
:102010008D918D01082E000C990B0E948337F801D9
:1020200031978083282F082E000C330B2053310961
:102030002A30310568F08154823150F085E0EBE2BE
:10204000F2E0DE01A95ABE4F01900D928A95E1F7A8
:10205000C016D106E1F684E0FE01E95AFE4FA5E183
:10206000B4E001900D928A95E1F78B2D0E94570CF8
:10207000882E80931404B2E0EB1609F4F4C1E3E077
:10208000EE1609F4C3C280911A040E94400C282F56
:1020900030E0A4E2B0E00E9455336B017C018091F6
:1020A0001B040E94400CA7019601280F311D411D01
:1020B000511DAAE0B0E00E940B336B017C018091BE
:1020C0001C040E94400CA7019601280F311D411DE0
:1020D000511DABE1B0E00E940B336B017C0180919C
:1020E0001D040E94400C482F4A50550B9A01032EA4
:1020F000000C440B550B2C0D3D1D4E1D5F1DABE11F
:10210000B0E00E940B336B017C0180911E040E94A1
:10211000400CA82FAA50BB0B9D01032E000C440BB2
:10212000550B2C0D3D1D4E1D5F1DABE1B0E00E9417
:102130000B332B013C0180911F040E94400C8A50FC
:10214000990B092E000CAA0BBB0B6C017D01C40C72
:10215000D51CE61CF71C20911504022E000C330B35
:102160002154310946EF4203C001439F900D1124D1
:1021700020911704821B910927FD93958D519F4F44
:1021800024EB289FA001299F500D11248091160453
:10219000082E000C990B815491096AE0689F900108
:1021A000699F300D1124420F531F80911804082E8F
:1021B000000C990BC097480F591F052E000C660B99
:1021C000770B27E0440F551F661F771F2A95D1F71D
:1021D000405C5F4F6F4F7F4F480D511D611D711D5A
:1021E000D701C60114E0B695A795979587951A95DE
:1021F000D1F7C95BDE4F8883C754D140D701C601F0
:102200000CE0B695A795979587950A95D1F7CA5B87
:10221000DE4F8883C654D140D701C60124E1B6956C
:10222000A795979587952A95D1F7CB5BDE4F888345
:10223000C554D140842F8295880F880F807CC55B60
:10224000DE4F8883CB54D140DB01CA0132E0B69522
:10225000A795979587953A95D1F7C65BDE4F88830A
:10226000CA54D140DB01CA01EAE0B695A79597951B
:102270008795EA95D1F7C75BDE4F8883C954D14073
:10228000F2E17695679557954795FA95D1F74F7096
:10229000C294A0EFCA224C29C85BDE4F4883C854C1
:1022A000D140C45BDE4F1882CC54D140C35BDE4FBB
:1022B0001882CD54D140C25BDE4F1882CE54D1403B
:1022C000C15BDE4F1882CF54D140FE01EB5BFE4F65
:1022D0002F012BE0420E511C10E0C12CD12C7601B5
:1022E0009E012D553F4F619170E050E040E0CC0CD5
:1022F000DD1CEE1CFF1CCB01042E02C0880F991FB1
:102300000A94E2F7880F892F881F990B8170C82AD9
:102310004601570181E5882283E5982280EDA822B5
:1023200082EFB82280E200E0982D91700927B694E0
:10233000A794979487948150B9F7C901810F911D93
:10234000DC010C9381E0810F46015701B7E48B2239
:10235000BCE39B22B1E6AB22B4EEBB2290E200E0EC
:10236000A82DA1700A27B694A794979487949150AA
:10237000B9F7820F932F911DDC010C931E5F123A67
:1023800030F44F5F5F4F4830510509F0B0CF4E1623
:102390005F0609F0A8CF90E080E001E010E0682F30
:1023A00047E050E0E0E0A62FB0E060FF07C0B801D2
:1023B000042E01C0660F0A94EAF7E62BBD0175955D
:1023C00067954150510978F7E23A70F48824839474
:1023D000912C8C0E9D1E8E0E911CF401D901A90F1B
:1023E000B11D4C9140839F5F923A18F48F5F8F3FED
:1023F000B1F682EAFE013196D90101900D928A95DB
:10240000E1F782EAEDE1F1E0DE01119601900D9233
:102410008A95E1F7FE013196A9016BE073E0919195
:10242000DA018D91AD01880F890FDB018D93BD011C
:102430002E173F07A1F7C55ADE4F0FB6F894DEBF3F
:102440000FBECDBFDF91CF911F910F91FF90EF9005
:10245000DF90CF90BF90AF909F908F907F906F90C4
:102460005F904F90089580911A040E94400C282F8D
:1024700030E0A4E2B0E00E9455336B017C01809112
:102480001B040E94400CA7019601280F311D411D1D
:10249000511DAAE0B0E00E940B336B017C018091DA
:1024A0001C040E94400CA7019601280F311D411DFC
:1024B000511DABE1B0E00E940B336B017C018091B8
:1024C0001D040E94400CE82FEA50FF0B9F01032ED1
:1024D000000C440B550B2C0D3D1D4E1D5F1DABE13B
:1024E000B0E00E940B336B017C0180911E040E94BE
:1024F000400C482F4A50550B9A01032E000C440BF8
:10250000550B2C0D3D1D4E1D5F1DABE1B0E00E9433
:102510000B332B013C0180911F040E94400C8A5018
:10252000990B092E000CAA0BBB0B6C017D01C40C8E
:10253000D51CE61CF71C912CB12CA12C8091DE033C
:102540009091DF03892BC9F44091E40350E0405A95
:102550005549052E000C660B770B97E0440F551F6D
:10256000661F771F9A95D1F74E5B5F4F6F4F7F4F76
:10257000480D591D6A1D7B1D33CE8091E0030E94DA
:10258000840C282F30E0A5E2B0E00E9455332B01E7
:102590003C018091E1030E94840CA3019201280F69
:1025A000311D411D511DA5E2B0E00E940B332B01EE
:1025B0003C018091E2030E94840CB301A201480F08
:1025C000511D611D711D411580E858076105710598
:1025D00080F050586109710987E0440F551F661F4C
:1025E000771F8A95D1F792E4890E911CA11CB11C2A
:1025F000BFCF07E0440F551F661F771F0A95D1F71D
:10260000A1E48A0E911CA11CB11CB2CF8091EE03F3
:102610000E94400C282F30E0A4E2B0E00E94553325
:102620006B017C018091EF030E94400CA701960191
:10263000280F311D411D511DAAE0B0E00E940B334F
:102640006B017C018091F0030E94400CA701960170
:10265000280F311D411D511DABE1B0E00E940B332D
:102660006B017C018091F1030E94400CE82FEA503D
:10267000FF0B9F01032E000C440B550B2C0D3D1D31
:102680004E1D5F1DABE1B0E00E940B336B017C017E
:102690008091F2030E94400C482F4A50550B9A013A
:1026A000032E000C440B550B2C0D3D1D4E1D5F1DC4
:1026B000ABE1B0E00E940B334B015C018091ED0374
:1026C0000E94400C8A50990B092E000CAA0BBB0BE0
:1026D0006C017D01C80CD91CEA1CFB1C87ED93E042
:1026E000DC010D900020E9F7FD01E85DF3405F019A
:1026F0009E2E83E292E00E94550F8A2D0E94220FA7
:1027000067ED73E08E010F5F1F4FC8010E94943781
:102710008091DE039091DF03009709F03EC0C50170
:102720009927F801E80FF91F2FE220832091E40395
:10273000243260F4FE01E80FF91F13820196F801BC
:10274000E80FF91F2A3038F5205D2083F801019049
:102750000020E9F73197E01BF10B4E2F50E070E0BD
:1027600060E04F57504462457142E350FF0BE83040
:10277000F10508F042C1ED53FC4E89819A81AB818D
:10278000BC810C94B734F514F614EB14E414DE1485
:10279000D114BF14E613295CD8CF0197B9F6809104
:1027A000E00389838091E1038A838091E2038B8334
:1027B0008FE28C83A7EDB3E0FE01359680E08915AA
:1027C00008F0C4CF9D9191938F5FF9CF89849A844B
:1027D000AB84BC84AA24BB240D811E812F81388543
:1027E000040F151F261F371F840F951FA61FB71F25
:1027F000480D591D6A1D7B1D4027512762277327ED
:1028000048015901EEE0880C991CAA1CBB1CEA95F2
:10281000D1F728013901F2E17694679457944794EF
:10282000FA95D1F784289528A628B7284819590978
:102830006A097B0984279527A627B7274A015B01E8
:10284000EBE0880C991CAA1CBB1CEA95D1F72A0165
:102850003B01F5E17694679457944794FA95D1F744
:1028600084289528A628B72888199909AA09BB0998
:10287000082719272A273B274C015D01E7E0B6947A
:10288000A79497948794EA95D1F72C013D01F9E13B
:10289000440C551C661C771CFA95D1F784289528A2
:1028A000A628B728081919092A093B0940275127E2
:1028B0006227732758014901481959096A097B0998
:1028C00084279527A627B7274A015B01E4E0880CF7
:1028D000991CAA1CBB1CEA95D1F72A013B01FCE11B
:1028E0007694679457944794FA95D1F7842895285D
:1028F000A628B72888199909AA09BB090827192702
:102900002A273B274C015D01EEE0880C991CAA1C8C
:10291000BB1CEA95D1F7F2E1B695A79597958795F7
:10292000FA95D1F788299929AA29BB29081B190BDF
:102930002A0B3B0B4027512762277327F22F232FA7
:10294000302F012F1F2F401B510B620B730B209157
:1029500014048FE390E0A0E0B0E0821B9109A1098C
:10296000B1096627772717E0440F551F661F771FA9
:102970001A95D1F7480F591F6A1F7B1F31CCE98583
:102980000D811E812F813885040F151F261F371FCB
:10299000840F951FA61FB71F4E0F511D611D711D7E
:1029A0002BCF0D811E812F813885040F151F261F07
:1029B000371F840F951FA61FB71F1ECF0D811E81C5
:1029C0002F8138853327F1CF0D811E812F813885E6
:1029D00022273327EACF2D814A015B01820E911C09
:1029E000A11CB11C95018401E4CFBB27840F951F66
:1029F000A61FB71F8A019B01FFCE8A019B01DB0145
:102A0000CA01FACE8EE292E00C94550F60E372E0B8
:102A10000C94CD0ECF93DF930E94220FEC0181E244
:102A200094E00E9406158C0F9D1FDF91CF910895B1
:102A3000E8EFF3E081E09191911180E094E0E530DE
:102A4000F907C9F7E091B602882389F0109269026C
:102A500010926A0210926B0210926C0210926D0238
:102A600010926E0210926F02109270020895EF5F42
:102A7000ED3008F0E0E0AE2FB0E0A850BC4F8C91F4
:102A80008823A9F3E093B602E150EC3088F4F0E03B
:102A9000E45BFA4E0C94B7347D158A159515A01594
:102AA000AB15B615C115CC15D715E215ED15FD15ED
:102AB00080EF809369028EEC80936A0281ED8093AF
:102AC0006B0210926C0210926D0210926E021092C4
:102AD0006F021092700283E392E00E94550F809182
:102AE000B6028A3010F40E9402158091B6020E944C
:102AF0000A158091B6020C94AD0C80E580936902B2
:102B00008CED80936A0285ED80936B0282E0809366
:102B10006C02D9CF80ED8093690287EB80936A02C3
:102B200084EF80936B028AE0F2CF80E580936902A4
:102B30008AE880936A0287E480936B0285E1E7CF9D
:102B400080E18093690287E580936A0286EF809333
:102B50006B0289E2DCCF80EA8093690287EB809385
:102B60006A0280E780936B028CE3D1CF80EB809385
:102B7000690287E780936A0286E080936B0284E5AE
:102B8000C6CF80E58093690287EB80936A028BEE63
:102B900080936B028BE6BBCF80E18093690288E172
:102BA00080936A028EEB80936B028DE7B0CF80ED4D
:102BB0008093690285E380936A0282E980936B02C5
:102BC00084E9A5CF80ED8093690285E080936A0255
:102BD00085EA80936B0287EA9ACF80E1809369024D
:102BE00081E580936A0287EC80936B028BE280938D
:102BF0006C0281E080936D0268CF80ED8093690262
:102C00008AEA80936A0288EC80936B0281EAEFCFB4
:102C1000CF93DF93BC0181E294E00E94CD0EEC01E2
:102C200081E294E00E9406158C0F9D1FDF91CF91E9
:102C30000895CF93DF93FC014481558160817181B8
:102C400081E294E00E945005EC0181E294E00E9450
:102C500006158C0F9D1FDF91CF9108950F931F9341
:102C6000CF93DF93EC010E942C058C01CE010E94D2
:102C70000615800F911FDF91CF911F910F9108953D
:102C8000CF92DF92FF920F931F93CF93DF93F12C9C
:102C9000D5E080916D05F81608F076C06DE173E01F
:102CA00081E294E00E942C050F2D10E0D09FF001EE
:102CB000D19FF00D1124E450FB4F85858A3010F42C
:102CC0000E940215D09FC001D19F900D11249C013C
:102CD00024503B4F6901F90185850E94220F89E24A
:102CE00092E00E94550FF601878590898436910500
:102CF00010F40E940215D09FF001D19FF00D112415
:102D0000E450FB4F878590890A9710F40E940215C2
:102D1000D09FC001D19F900D11249C0124503B4FA6
:102D20006901F9016785708990E080E04AE00E94BE
:102D3000DC0E89E292E00E94550FF60186858A300A
:102D400010F40E940215D09F6001D19FD00C112475
:102D5000F601E450FB4F86850E94220F89E292E043
:102D60000E94550FF601E35FFA4FC081C7FF0AC00A
:102D7000CF77CA3010F40E9402158C2F0E940A15DA
:102D8000F39487CFC0E0F7CF81E294E0DF91CF9159
:102D90001F910F91FF90DF90CF900C9406154F92EA
:102DA0005F926F927F928F929F92AF92BF92CF92DB
:102DB000DF92EF92FF920F931F93CF93DF93CDB7E4
:102DC000DEB7A3970FB6F894DEBF0FBECDBF6B0181
:102DD0007C012FB7F8948091030390910403A09194
:102DE0000503B09106032FBFA7019B01280F391FD0
:102DF0004A1F5B1F28A339A34AA35BA310E000E08E
:102E000088EE482E83E0582E612C712C0E94430AD4
:102E1000882371F0CE0101960E94A90E8FE1FE0178
:102E20003196ADEDB4E001900D928A95E1F7EECFC9
:102E30002FB7F8948091030390910403A0910503A8
:102E4000B09106032FBF88A099A0AAA0BBA0881AA2
:102E5000990AAA0ABB0A31EA83163FE09306A10445
:102E6000B104A4F160EA72E081E294E00E942C05D2
:102E7000C501B401A30192010E94EC32CA01B9015B
:102E80000E94290F81E294E00E94061568EE73E02B
:102E900080E090E00E94FA0441E1C41647E2D406C3
:102EA000E104F10458F00F5F1F4F0530110534F0B5
:102EB00081E090E00E94A51710E000E081E294E03C
:102EC0000E94AE05892B09F4A1CF05C0181419047E
:102ED0001A041B049CF351EAC5165FE0D506E10411
:102EE000F104E0F068E972E081E294E0A3960FB6A5
:102EF000F894DEBF0FBECDBFDF91CF911F910F9130
:102F0000FF90EF90DF90CF90BF90AF909F908F9009
:102F10007F906F905F904F900C942E16A3960FB6F3
:102F2000F894DEBF0FBECDBFDF91CF911F910F91FF
:102F3000FF90EF90DF90CF90BF90AF909F908F90D9
:102F40007F906F905F904F9008950F931F93CF9352
:102F5000DF938C01D0E0C0E061E08091B7020E9475
:102F6000580462E370E080E090E00E94CF1660E0D9
:102F70008091B7020E94580462E370E080E090E024
:102F80000E94CF1621960C171D0731F7DF91CF91C4
:102F90001F910F9108950F931F93CF93DF93EC012F
:102FA00088819981009759F02A813B81261737073C
:102FB00030F081E0DF91CF911F910F9108958B0147
:102FC0006F5F7F4F0E94BB36009759F099838883CB
:102FD0001B830A832C813D81232B59F7FC0110822E
:102FE000E8CF80E0E7CFCF93DF93EC018881998130
:102FF000009711F00E943236198218821D821C82BD
:103000001B821A82DF91CF910895EF92FF920F9366
:103010001F93CF93DF93EC017B018A01BA010E94D9
:10302000CB1781110BC0CE010E94F317CE01DF91A7
:10303000CF911F910F91FF90EF9008951D830C8306
:10304000B701888199810E949437F0CFCF93DF93A5
:10305000EC01FB018617970749F0608171816115CA
:10306000710541F0448155810E940518CE01DF9120
:10307000CF9108950E94F317F9CFFC0111821082BD
:103080001382128215821482FB0101900020E9F75D
:103090003197AF01461B570B0C940518FC0180813A
:1030A0009181009711F00C94323608954F925F92FF
:1030B0006F927F928F929F92AF92BF92EF92FF9208
:1030C0000F931F93CF93DF93CDB7DEB7C054D109D1
:1030D0000FB6F894DEBF0FBECDBF90E4EFEBF1E08A
:1030E000DE01119601900D929A95E1F781116CC065
:1030F00087E690E030E020E0032F122F44244A942A
:10310000542C32017801E80EF91E0E151F050CF043
:1031100060C0C8010E94A43292012827D301C901CE
:103120008F709927AA27BB27880F991F880F991F8F
:1031300041E050E04C0F5D1F840F951FFC01808023
:103140009180A280B38034E076946794579447943A
:103150003A95D1F784249524A624B724C8010E9467
:10316000A43290E044E0959587954A95E1F7092EC1
:10317000000CAA0BBB0B88259925AA25BB258F70AF
:103180009927AA27BB27880F991F880F991F21E02D
:1031900030E02C0F3D1F820F931FFC0140805180B7
:1031A0006280738064E0B694A794979487946A953C
:1031B000D1F7482459246A247B2440945094609485
:1031C00070940F5F1F4FA1CF8AE090E030E921E0BB
:1031D00093CFC301B201C05CDF4F0FB6F894DEBFDE
:1031E0000FBECDBFDF91CF911F910F91FF90EF9058
:1031F000BF90AF909F908F907F906F905F904F9017
:1032000008958F929F92AF92BF92CF92DF92EF92EA
:10321000FF920F931F93CF93DF9300D000D0CDB7D1
:10322000DEB7882309F44DC099EBE92E92E0F92E20
:1032300000E911E0C8010E94A432F70181937F01E7
:103240000F5F1F4F0A39F1E01F07A1F781E00E94CD
:1032500056184B015C010AE010E080E991E0080F8C
:10326000191F6E01F5E0CF0ED11CCE0101967C0135
:10327000081B190BC8018E0D9F1D0E94A432F70177
:1032800081937F01CE16DF06A9F781E049815A813B
:103290006B817C81481559056A057B0509F080E042
:1032A0000F900F900F900F90DF91CF911F910F9182
:1032B000FF90EF90DF90CF90BF90AF909F908F9056
:1032C00008958DEAE82E83E0F82E10E000E0C801B2
:1032D0000E94A432F70181937F010F5F1F4F0736D1
:1032E0001105A9F780E00E9456184B015C0107E622
:1032F00010E090E080E0B3CF2F923F924F925F9228
:103300006F927F928F929F92AF92BF92CF92DF92F5
:10331000EF92FF920F931F93CF93DF93CDB7DEB75A
:10332000A0970FB6F894DEBF0FBECDBF4C011801B9
:1033300029014C8F5D8F6E8F7F8FE8A262E372E070
:103340000E943D1890E4A92E22E4B22E3FE0C32E45
:10335000D12CE12CF12C00E010E09101A2016C8D48
:103360007D8D8E8D9F8D0E9417359F938F937F93B8
:103370006F935F934F933F932F938AE392E09F93D2
:103380008F933E01BEE06B0E711C7F926F920E9484
:10339000AA379101A2016C8D7D8D8E8D9F8D0E942B
:1033A00015359F938F937F936F935F934F933F93C5
:1033B0002F93EAE3F2E0FF93EF932E0185E1480EAD
:1033C000511C5F924F920E94AA37F3010190002096
:1033D000E9F73197AF0146195709B301C4010E94BB
:1033E00005181A8219821C821B821E821D82B4015A
:1033F0008E010F5F1F4FC8010E942618F201019035
:103400000020E9F73197E419F5090FB6F894DEBF0B
:103410000FBECDBFB1F06D807E806E0E7F1EB301FA
:10342000C8010E94CB17882309F45CC029813A8126
:103430008D819E81B201820F931F0E9494377E82FC
:103440006D82B801C4010E942618C8010E944E185E
:10345000B8A1B1112DC0F4016480758061147104AC
:1034600009F044C01982F801CE010D9620E2319195
:10347000303331F4DF0111972C938E179F07B9F782
:10348000F80101900020E9F73197AF01401B510B83
:10349000B801C4010E940518F40120803180211474
:1034A000310431F06480758021016114710491F55B
:1034B000C401A0960FB6F894DEBF0FBECDBFDF915A
:1034C000CF911F910F91FF90EF90DF90CF90BF9021
:1034D000AF909F908F907F906F905F904F903F90B4
:1034E0002F900895C8010E94F317ABCFFCE06F1630
:1034F000710418F08CE0682E712CD4016D917C91D0
:10350000A301C8010E949B37F801E60DF71D108248
:10351000AACF280182010F5F1F4FD2018C91082E84
:10352000000C990B0E946C31892B99F7B1E06B1A52
:103530007108620C731CF3018081082E000C990B3A
:103540000E946C31892B39F06414750420F0F1E08D
:103550006F1A7108F0CFA3014F5F5F4F44195509EF
:10356000D40115965C934E9314972414350420F4DB
:10357000B201C1010E948B37D401ED91FC911197EA
:1035800014968D919C91E80FF91F108291CFEF92C4
:103590000F931F93CF93DF9300D000D000D0CDB70F
:1035A000DEB782508A3080F4E82FF0E0E652F54E24
:1035B0000C94B734181B2D1B8B1B8E1B911BB51B3A
:1035C000B81BEB1BBE1BBB1B66E173E081E294E002
:1035D0000E942C0580910003909101038130910598
:1035E00001F1C0F0029751F480E492E00E940816C5
:1035F0006EE073E081E294E00E942E1626960FB6EC
:10360000F894DEBF0FBECDBFDF91CF911F910F9118
:10361000EF90089582E492E00E94081666E073E05D
:10362000E9CF84E492E00E9408166EEF72E0E2CFE8
:1036300067EF72E081E294E00E942C0588EE93E04F
:103640000E94081660EF72E081E294E00E942C056F
:103650008DEE93E00E940816D1CF8091F40490E0A3
:103660009093C6028093C5028091F30490E09093FA
:10367000C4028093C3028091F20490E09093FD0213
:103680008093FC0269EE72E081E294E00E942C05D6
:103690008091C5029091C6020A9714F40E94021507
:1036A0006091C5027091C602072E000C880B990B21
:1036B0000E94290F86E492E00E94550F8091C30278
:1036C0009091C4020A9714F40E9402156091C302FB
:1036D0007091C402072E000C880B990B0E94290FD1
:1036E00086E492E00E94550F8091FC029091FD02C9
:1036F0000A9714F40E9402156091FC027091FD0279
:10370000072E000C880B990B0E94290F81E294E090
:103710000E94061573CF61EE72E06CCF69ED72E026
:1037200069CF62ED72E081E294E00E942C05009185
:10373000690210916A0220916B0230916C024091F3
:103740006D0250916E0260916F0270917002E12CD7
:10375000CE0101960E947C19CE0101960E94191695
:10376000CE0101960E944E1849CF6AEC72E042CF1A
:1037700062EC72E03FCF6CEB72E03CCF65EB72E045
:1037800081E294E00E942C058EE480937C0062E04C
:1037900070E080E090E00E94FA0480917A008064FA
:1037A00080937A0080917A0086FDFCCF809178002A
:1037B00020917900322F282F032E000C440B550B3B
:1037C00064EB7BE281E190E00E94EC32B901330FBF
:1037D000880B990B99CF6EEA72E081E294E00E9427
:1037E0002C058091C702811104C088E492E00E94F8
:1037F00008168091C702813021F48AE492E00E9489
:1038000008168091C702823021F48CE492E00E9475
:1038100008168091C702833009F0F0CE82E592E06D
:1038200019CF60E880E10E941F0D60E088E00E94EF
:10383000580488E00C94C71A0E94950C82E090E02E
:10384000909301038093000360E08091B7020E948F
:1038500058040E94111C81E00C94C71A2F923F92C9
:103860004F925F926F927F928F929F92AF92BF9290
:10387000CF92DF92EF92FF920F931F93CF93DF933C
:10388000CDB7DEB76F970FB6F894DEBF0FBECDBFD2
:103890002F83388749875A876B877C878D879E87D8
:1038A0008090BB029090BC02A090BD02B090BE027E
:1038B000A4E6B0E0A50194010E940B337B018C01CA
:1038C00020E030E0A9016F87F88A898B1A8B2B8B57
:1038D0003C8B4D8B5E8BC501B4010E9485316C8F92
:1038E0007D8F8E8F9F8F2F81388549855A856B8577
:1038F0007C858D859E85211501EE300705EF4007FB
:1039000005E05007610571058105910509F008F48E
:1039100055C159016A017B018C0120E034E04BE67E
:1039200054EF64E170E080E090E00E9417352F8B47
:10393000388F498F5A8F0E94BD3419012A013B01EB
:103940004C01AF84B888C988DA88E12CF12C00E0FA
:1039500010E00E9417352B8F9101A201B301C40121
:103960000E941535B901CA010E94853120EF3FEF51
:103970004FE759E40E94E6312C8D3D8D4E8D5F8DD1
:103980000E94D1330E944A3424E630E040E050E007
:103990000E94CA3249015A01C501B4010E94853111
:1039A00020EF3FEF4FE759E40E94D13320E030E0B1
:1039B00040E053E40E94E6310E944A349B01AC018E
:1039C0008B8D482E512C712C612C87E0440C551C9A
:1039D000661C771C8A95D1F7E2E05E1A61087108CF
:1039E000420E531E641E751E97E0880C991CAA1C7B
:1039F000BB1C9A95D1F76FEF7FEF8FE090E00E94AC
:103A0000BA32861A970AA80AB90A6FEF8AE10E94A9
:103A10001F0D6FEF8BE10E941F0D662D63708CE10F
:103A20000E941F0D9927872D762D652D8DE10E940F
:103A30001F0D642D8EE10E941F0D6A2D606F8FE1B6
:103A40000E941F0D99278B2D7A2D692D80E20E94EF
:103A50001F0D682D81E20E941F0D8F88988CA98C04
:103A6000BA8C04E0801A9108A1080EEFB00A47E072
:103A7000880C991CAA1CBB1C4A95D1F760E08AE20D
:103A80000E941F0D61E08BE20E941F0D6A2D637082
:103A9000612B8CE20E941F0D99278B2D7A2D692DA9
:103AA0008DE20E941F0D682D8EE20E941F0D60E0C6
:103AB0008FE20E941F0D60E080E30E941F0D60E016
:103AC00081E30E941F0D8091610290916202A0919A
:103AD0006302B09164022F81388549855A85281B7D
:103AE000390B4A0B5B0BDA01C901B7FF07C0B09570
:103AF000A095909581959F4FAF4FBF4F813A9648C3
:103B0000A140B10524F060EA81EB0E941F0D6FE433
:103B100080E10E941F0D4F814093610258855093B0
:103B20006202898580936302EA85E0936402EB84F4
:103B3000E0926502FC84F09266020D8500936702B4
:103B40001E851093680261E088E00E94580467EACD
:103B500072E081E294E00E942C05E12C0F8118852F
:103B600029853A854B855C856D857E85CE010196DC
:103B70000E947C19CE0101960E941916CE01019671
:103B80000E944E1887E00E94C71A6F960FB6F894ED
:103B9000DEBF0FBECDBFDF91CF911F910F91FF9080
:103BA000EF90DF90CF90BF90AF909F908F907F90DD
:103BB0006F905F904F903F902F9008952F813885A0
:103BC00049855A856B857C858D859E8507E00E9499
:103BD000743559016A017B018C0120E034E04BE629
:103BE00054EF64E170E080E090E00E9417352F8B85
:103BF000388F498F5A8F60E070E080E090E00E943B
:103C0000BD3419012A013B014C01AF84B888C98831
:103C1000DA88E12CF12C00E010E00E9417352B8FA0
:103C20009101A201B301C4010E941535B901CA0175
:103C30000E94853120EF3FEF4FE759E40E94E631C3
:103C40002C8D3D8D4E8D5F8D0E94D1330E944A3464
:103C500024E630E040E050E00E94CA3249015A01B7
:103C600010E79ACE3F924F925F926F927F928F921F
:103C70009F92AF92BF92CF92DF92EF92FF920F93FB
:103C80001F93CF93DF93D82FEBE0F3E082EADF01BD
:103C90001D928A95E9F76D2F8091F6030E945A0FC5
:103CA00061E08091B7020E9458048FB7F894409069
:103CB00003035090040360900503709006038FBFC8
:103CC0008BE0882E83E0982EBBEA4B0EB2E05B1EA1
:103CD000611C711CC0E092E9392EF40141914F0141
:103CE000439DA0011124952F990F990B9A01492FFB
:103CF000592F692F792F892FA0906902B0906A02FD
:103D0000C0906B02D0906C02E0906D02F0906E0259
:103D100000916F02109170020E948D350E942E1C3E
:103D20002FB7F8948091030390910403A0910503A9
:103D3000B09106032FBF84159505A605B70530F48D
:103D400081E294E00E94AE05892B51F361E972E0B3
:103D500081E294E00E942C058091B6028A3010F432
:103D60000E9402158091B6020E94220F89E292E021
:103D70000E94550F8091E7031C2F863009F4169599
:103D8000D33009F04DC01F5A143608F44EC0812FAD
:103D90000E940A1506E010E0F090B70261E08F2D56
:103DA0000E94580465E070E080E090E00E94FA0410
:103DB00060E08F2D0E94580462E370E080E090E0A4
:103DC0000E94FA040150110939F781E294E00E943F
:103DD000AE058C01892B61F5CF5FFBEA4F0EF2E057
:103DE0005F1E611C711CC23A09F077CF0E94111C42
:103DF00060E08091B7020E945804C801DF91CF9122
:103E00001F910F91FF90EF90DF90CF90BF90AF90F8
:103E10009F908F907F906F905F904F903F9008950C
:103E20001A3008F0B1CF0E9402150E940215AFCFE0
:103E300001E010E0DBCF2F923F924F925F926F92A2
:103E40007F928F929F92AF92BF92CF92DF92EF922A
:103E5000FF920F931F93CF93DF93CDB7DEB7A89751
:103E60000FB6F894DEBF0FBECDBF8091DE039091F8
:103E7000DF03029721F122E02FA38091B502811187
:103E800021C060E572E081E294E0A8960FB6F89454
:103E9000DEBF0FBECDBFDF91CF911F910F91FF907D
:103EA000EF90DF90CF90BF90AF909F908F907F90DA
:103EB0006F905F904F903F902F900C942E1631E0B2
:103EC0003FA3DBCF1092010310920003E8EFF3E071
:103ED00081E09191911180E044E0E530F407C9F769
:103EE000882309F445C064E272E081E294E00E9414
:103EF0002E1681E09091D7039134E1F59091D8038B
:103F00009134C1F59091D9039033A1F59091DA03E2
:103F1000913481F59091DB03913461F59091DC034C
:103F2000913441F56DE072E081E294E00E942E163A
:103F30006EEE71E081E294E00E942E16A8960FB614
:103F4000F894DEBF0FBECDBFDF91CF911F910F91CF
:103F5000FF90EF90DF90CF90BF90AF909F908F90A9
:103F60007F906F905F904F903F902F900C941C1C0F
:103F700080E0C0CF8111DCCF1092B6020E941815EC
:103F80002091690230916A0240916B0250916C025B
:103F900060916D0270916E0280916F02909170023B
:103FA000205F314F4F4F5F4F6F4F7F4F8F4F9F4F6E
:103FB0002093690230936A0240936B0250936C0223
:103FC00060936D0270936E0280936F029093700203
:103FD0000E94111C81E00E94C71A31E6232E32E0B4
:103FE000332E4CE2842E99249394A12CB12C54E1CD
:103FF000452E512C612C712C81E294E00E94AE057B
:10400000892B09F058C20E94430A882309F47FC211
:104010001092FF021092FE02CE0105960E94A90E98
:104020008FE1FE013596ADEDB4E001900D928A95D9
:10403000E1F783E00E94C71A81E294E00E94AE0596
:10404000892B09F038C28091FB0483FF52C282FBA6
:10405000552750F95CA382FF4CC28091F40490E094
:104060009093C6028093C5021091F304812F90E0D3
:104070009093C4028093C3020091F204802F90E0D9
:104080009EA38DA39093FD028093FC028091E50393
:104090009091E603019731F56091E1047091E2049B
:1040A0008091E3049091E4040E94873125E93FEB7D
:1040B00046ED53E30E94E6316B017C016091DD0423
:1040C0007091DE048091DF049091E0040E948731BA
:1040D00025E93FEB46ED53E30E94E631A701960147
:1040E0000E94460D2DA13EA1232B09F08FC110FD8A
:1040F00021C08091F703813131F58091E70390E091
:10410000ADEEB3E0EAE5F2E040E09F012A5532402F
:10411000281739075CF43D9121913217B1F34CA176
:10412000F4CF9093FF028093FE0266CF411129C025
:10413000112339F184E00E94C71A82E00E94C71A55
:104140000E94401669C18031E1F08F3009F049C109
:10415000E091B602E250E930A0F4F0E0EE54FF4DF9
:104160000C94B734BB20A121AB21B521BF21C921BB
:10417000D321DD21E721112321F0143111F0183270
:10418000C9F68091FB02882309F44FC161E08FE0FA
:104190000E94A40460E08FE00E9458048091F40320
:1041A0009091F503019709F04BC06091E70470917D
:1041B000E804072E000C880B990B0E9487312AE037
:1041C00037ED43E25CE30E94E6316B017C016091D4
:1041D000E5047091E604072E000C880B990B0E94F1
:1041E00087319B01AC01C701B6010E9465330E9473
:1041F0004A346B017C01A50194010E94CA32822FCE
:104200000E94570C182F2CE231E0129FC001139F1F
:10421000900D1124092E000CAA0BBB0BA7019601CF
:10422000281B390B4A0B5B0BCA01B901A301920190
:104230000E94CA32822F0E94570C88A71093F6035F
:104240008FA10E94321E892B09F035C18091E703AE
:10425000863009F41BC1ADEEB3E0EAE5F2E08D91E2
:1042600081932E163F06D9F78091B60290E08C30EC
:10427000910569F0FC01E750FC4F01962191211155
:104280001CA28C309105CCF34CA1442339F1209130
:1042900008043091090440910A0450910B042D3315
:1042A00031054105510508F41FC18091FB028111C0
:1042B0001BC168E572E080E090E00E94FA0461E0D2
:1042C00081E10E9458040E94950C60ED77E080E047
:1042D00090E00E94CF168BE00E94C71A0E94950CB6
:1042E0000E9418152091690230916A0240916B0278
:1042F00050916C0260916D0270916E0280916F021C
:1043000090917002205F314F4F4F5F4F6F4F7F4F43
:104310008F4F9F4F2093690230936A0240936B0244
:1043200050936C0260936D0270936E0280936F02E3
:104330009093700268EB7BE080E090E00E94CF16E3
:1043400062CE123009F41DCF163109F41ACF1A3299
:1043500009F0F0CE16CF163009F413CF1A3109F454
:1043600010CF1E3209F0E6CE0CCF183009F409CF79
:104370001C3109F406CF103309F0DCCE02CF1A301D
:1043800009F4FFCE1E3109F4FCCE123309F0D2CE6F
:10439000F8CE1C3009F4F5CE103209F4F2CE143305
:1043A00009F0C8CEEECE1E3009F4EBCE123209F47D
:1043B000E8CE163309F0BECEE4CE103109F4E1CEDA
:1043C000143209F4DECE183309F0B4CEDACE12314D
:1043D00009F4D7CE163209F4D4CE1A3309F0AACE96
:1043E000D0CE8F3008F0A6CE9AE0853010F0855000
:1043F00094E1191718F0191B1917D8F790E0880FD6
:10440000991F1817190609F4BCCE94CE4DA15EA1D0
:10441000493351050CF48ECE82E090E00E94A5173E
:1044200064E670E080E090E089CFE090E8030091DE
:10443000E9037091EA031091EB036CA190E080E036
:10444000DE01119630E020E0AC0147535F4FFA01E6
:10445000E20FF31FE491ED932F5F3F4F24303105BE
:10446000B1F72981E2120AC02A81021307C02B8109
:10447000721304C02C81121301C060E005968430D1
:1044800051E09507E9F6611181CEBDCD68E273E296
:1044900080E090E00E94FA048091F4039091F5038B
:1044A000019719F438A53093F60383E00E94321E79
:1044B000892B09F4D0CEA8960FB6F894DEBF0FBEB4
:1044C000CDBFDF91CF911F910F91FF90EF90DF90C3
:1044D000CF90BF90AF909F908F907F906F905F90A4
:1044E0004F903F902F900895A8EEB3E00E940B33B9
:1044F000F0CE0E94401681E090E00E94A51785E072
:104500000E94C71A60E971E080E090E017CF8091C7
:10451000FE029091FF02019681365AEE950708F44B
:1045200000CE1092FF021092FE026AED71E081E26D
:1045300094E00E942E160E94950C6DEC71E08EEBBB
:1045400094E00E942E1660ED77E080E090E00E94FB
:10455000CF1652CD7F928F929F92AF92BF92CF9201
:10456000DF92EF92FF920F931F93CF93DF9380918F
:10457000B502811113C068E870E081E294E0DF9138
:10458000CF911F910F91FF90EF90DF90CF90BF9050
:10459000AF909F908F907F900C942E1681E090E0CA
:1045A000909301038093000370900C0480900D049D
:1045B00090900E04A0900F04B0901004009111048C
:1045C00010911204D09113047092690280926A02D1
:1045D00090926B02A0926C02B0926D0200936E02F8
:1045E00010936F02D0937002272D382D492D5A2D2C
:1045F0006B2D702F812F9D2F0E9479346B017C01D0
:104600002CEF30E441E451E50E948031CEE087FF99
:10461000CFE028E430E341E850E5C701B6010E944D
:10462000803187FDCDE02AE93BEA4AEF5FE4C7012C
:10463000B6010E94803187FDCCE02EEF3DED43EBCB
:104640005FE4C701B6010E94803187FDCBE02EE612
:104650003CE249E45FE4C701B6010E94803187FD76
:10466000CAE02EE039E442E35FE4C701B6010E94EC
:10467000803187FDC9E02DE134EE46E15FE4C701FA
:10468000B6010E94803187FDC8E02AEF3CE64DEE7E
:104690005EE4C701B6010E94803187FDC7E02FE1CB
:1046A00039EA49EC5EE4C701B6010E94803187FD1A
:1046B000C6E026E83EE041E95EE4C701B6010E949B
:1046C000803187FDC5E02CE33BE649E45EE4C701A9
:1046D000B6010E94803187FDC4E023E638E44CEC4B
:1046E0005DE4C701B6010E94803187FDC3E027E980
:1046F0003AE542E55DE4C701B6010E94803187FDDD
:10470000C2E029E132EC49E55CE4C701B6010E9450
:10471000803187FDC1E021E235EC4BE75BE4C70166
:10472000B6010E94803187FDC0E08C2F0E94AD0C45
:10473000272D382D492D5A2D6B2D702F812F9D2F10
:104740000E942E1C61E08091B7020E94580481E013
:104750000E94C71A86E0DF91CF911F910F91FF90C1
:10476000EF90DF90CF90BF90AF909F908F907F9011
:104770000C94C71AFF920F931F93CF93DF93EC0112
:10478000F62E08811981C8010E94A432F81621F082
:104790006F2DC8010E94AC32CE01DF91CF911F91E5
:1047A0000F91FF900895CF92DF92EF92FF920F93B7
:1047B0001F93CF93DF9300D000D000D0CDB7DEB7EA
:1047C000D82E2DEAE22E23E0F22E10E000E088231E
:1047D000D9F039EBE32E32E0F32E00E911E01A8331
:1047E0000983F70161917F01CE0101960E94BA23EE
:1047F0000F5F1F4F0A39F1E01F0789F78AE0E82EA3
:10480000F12C00E911E013C01A830983F7016191CB
:104810007F01CE0101960E94BA230F5F1F4F07361A
:10482000110591F797E6E92EF12C10E000E08D2DAF
:104830000E94561869837A838B839C83E00EF11E55
:104840006E01F5E0CF0ED11C8E010F5F1F4FE01AF5
:10485000F10AC701800F911F9E838D83F80161913A
:104860008F01C6010E94BA23C016D10691F7269681
:104870000FB6F894DEBF0FBECDBFDF91CF911F9171
:104880000F91FF90EF90DF90CF9008951F920F92BD
:104890000FB60F9211242F933F938F939F93AF9353
:1048A000BF938091030390910403A0910503B091FD
:1048B00006033091020323E0230F2D3758F50196AC
:1048C000A11DB11D20930203809303039093040361
:1048D000A0930503B093060380910703909108030A
:1048E000A0910903B0910A030196A11DB11D809307
:1048F000070390930803A0930903B0930A03BF91A1
:10490000AF919F918F913F912F910F900FBE0F907C
:104910001F90189526E8230F0296A11DB11DD2CF36
:104920001F920F920FB60F9211242F933F934F9324
:104930005F936F937F938F939F93AF93BF93EF9307
:10494000FF9381E294E00E94CE05FF91EF91BF9129
:10495000AF919F918F917F916F915F914F913F9117
:104960002F910F900FBE0F901F9018951F920F92CE
:104970000FB60F9211242F938F939F93EF93FF9372
:10498000E0913104F09132048081E0913704F0919C
:10499000380482FD1BC0908180913A048F5F8F7331
:1049A00020913B04821741F0E0913A04F0E0EF5D82
:1049B000FB4F958F80933A04FF91EF919F918F91D8
:1049C0002F910F900FBE0F901F9018958081F4CFFC
:1049D0001F920F920FB60F9211242F933F934F9374
:1049E0005F936F937F938F939F93AF93BF93EF9357
:1049F000FF93E091B302F091B402309749F0A6859D
:104A0000B7858585968D91FF14C09C918923A1F46B
:104A1000FF91EF91BF91AF919F918F917F916F9196
:104A20005F914F913F912F910F900FBE0F901F906C
:104A300018959C91892361F7A389B4899C918589F4
:104A4000809589238C93868997890197F1F7608DEA
:104A5000718DA685B785558538E020E0CB0101979B
:104A6000F1F7822F90E095958795282F4C9145235B
:104A700009F02068315091F7868D81FD2095809155
:104A8000B20290E001968F7399273091B1023817E6
:104A900099F0A091B202B0E0AF58BD4F2C93809333
:104AA000B202828D938D0197F1F7A389B4898C911D
:104AB0009589892B8C93ACCF868D8160868FF1CFC1
:104AC000CF92DF92EF92FF9210922404109223046F
:104AD00098EEC92E93E0D92EE12CF12CC09225043A
:104AE000D0922604E0922704F092280483E092E01A
:104AF000909322048093210485EC90E090932E04FF
:104B000080932D0484EC90E09093300480932F04E4
:104B100080EC90E0909332048093310481EC90E03B
:104B2000909334048093330482EC90E090933604A5
:104B30008093350486EC90E090933804809337049A
:104B400010923A0410923B0410923C0410923D04DF
:104B50008EE695E00E94860E83E995E00E94860E1F
:104B60001092FD041092FE041092FF0410920005B2
:104B7000109201051092020510920305109204058F
:104B8000109205051092060510920705109208056F
:104B90008EE695E00E94860E10926D0510929205A9
:104BA0008DED94E00E94860E1092C1041092C00414
:104BB000C092C204D092C304E092C404F092C5042F
:104BC00085E192E09093BF048093BE041092D504D7
:104BD0001092D4041092D7041092D6041092D904E3
:104BE0001092D8041092DB041092DA046091DC0475
:104BF0006E7F6D7F6093DC046695617081E068274D
:104C000083E00E94580461E083E00E94A404E7ED81
:104C1000F5E0E491E093CE04E3ECF5E0E491F0E01C
:104C2000EE0FFF1FEA54FA4F859194919093D004B0
:104C30008093CF0460E082E00E94A4048091DC04B1
:104C400081FD04C061E082E00E94580482E080930C
:104C5000CA04E6EDF5E0E491E093CB04E2ECF5E084
:104C6000E491F0E0EE0FFF1FE455FA4F8591949127
:104C70009093CD048093CC04FF90EF90DF90CF9081
:104C80000895CF93DF93CDB7DEB7C556D1090FB6E0
:104C9000F894DEBF0FBECDBF789484B5826084BD2A
:104CA00084B5816084BD85B5826085BD85B5816030
:104CB00085BD80916E00816080936E0010928100AE
:104CC0008091810082608093810080918100816069
:104CD000809381008091800081608093800080912A
:104CE000B10084608093B1008091B00081608093B6
:104CF000B00080917A00846080937A0080917A007D
:104D0000826080937A0080917A00816080937A003B
:104D100080917A00806880937A001092C1008CE5BF
:104D20008093B8001092B9008FEF8093BB0010926F
:104D300064001092FB02E0913104F091320482E0B1
:104D40008083E0912D04F0912E041082E0912F04D5
:104D5000F09130048FEC808310923904E091350497
:104D6000F091360486E08083E0913304F0913404BE
:104D7000808180618083E0913304F09134048081EC
:104D800088608083E0913304F091340480818068EE
:104D90008083E0913304F091340480818F7D80839F
:104DA00080ED97E0A0E0B0E0809325049093260486
:104DB000A0932704B09328041092D9041092D80429
:104DC0001092D7041092D6041092D5041092D404F5
:104DD0008DE991E09093DB048093DA049091CA040A
:104DE000963108F047C02DEB30E03093D504209386
:104DF000D4042BE931E03093D7042093D6042CE27D
:104E000031E03093D9042093D8042091680084E0E5
:104E1000983048F031E09E3008F430E081E001C085
:104E2000880F3A95EAF7822B809368002DE630E0F0
:104E3000983050F02BE630E09E3030F02CE630E039
:104E4000963110F030E020E03093D2042093D1046A
:104E5000292F30E0983008F09DC181E001C0880F13
:104E60009A95EAF78093D3048091DA049091DB0459
:104E70000197F1F78091D8049091D904892B49F1D9
:104E8000E091B302F091B40224E0EE3BF20709F1A5
:104E9000309739F0A389B4899C91858980958923BD
:104EA0008C938091DC048E7F8093DC041092B2029C
:104EB0001092B1028EEB94E09093B4028093B3020F
:104EC000E091D104F091D20480819091D304892B98
:104ED000808381E00E940119811128C068E174E09B
:104EE00081E294E00E942E166EEA73E081E294E083
:104EF0000E942E1681E08093B9028CE69AEBACE812
:104F0000B1E08093BB029093BC02A093BD02B0932A
:104F1000BE0285E08093BA0286E08093BF0283E6FA
:104F20008093C0028093C1028093C20280E00E94FD
:104F30000119882309F43BC18091D5039091D603D0
:104F400090930103809300031092DD031092EC0311
:104F50001092F30384E090E09093B8028093B7023C
:104F600065E573E081E294E00E942E1680E190E016
:104F70009093B8028093B70281E090E09093E603AB
:104F80008093E5039093F5038093F403109201035B
:104F90001092000361E080E10E94A40461E088E0D7
:104FA0000E94A4046DE373E081E294E00E942C056A
:104FB00081E00E94220F86E492E00E94550F8EE06D
:104FC0000E940A1564E273E081E294E00E942E16CA
:104FD00080E190E00E94A51780E4EFEBF1E0DE01B4
:104FE000119601900D928A95E1F724E630E088242D
:104FF0008A94982C5401E0E4E0937C0080917A003C
:10500000806480937A0080917A0086FDFCCF809145
:10501000780090917900B501A40148274F70552779
:1050200066277727440F551F440F551FA1E0B0E0B6
:10503000AC0FBD1F4A0F5B1FDA014D915D916D9161
:105040007C91F4E0B694A79497948794FA95D1F75D
:10505000482559256A257B25A4E095958795AA952D
:10506000E1F78F709927092E000CAA0BBB0B842740
:105070009527A627B7278F709927AA27BB27880FC0
:10508000991F880F991FA1E0B0E0AC0FBD1F8A0FD8
:105090009B1FDC018D909D90AD90BC9014E07695A7
:1050A0006795579547951A95D1F784269526A62694
:1050B000B72680949094A094B0942150310909F0BF
:1050C0009BCF89288A288B2811F00E94F6300E94F5
:1050D000950C80E68093B5020E94140D80EC0E942E
:1050E000FF0C182F0E940C0D183179F082E6809386
:1050F000B5020E94140D84EC0E94FF0C182F0E9430
:105100000C0D183111F01092B502809100039091AE
:1051100001038130910509F4E8C008F4E9C0029761
:1051200009F4EBC04E01BAE08B0E911C3E012DE05C
:10513000620E711CCC24C394D12C22E0A22EB12C7F
:1051400081E294E00E94AE05892B09F445C781E015
:105150008093FB0282E0F82E81E294E00E94AE058B
:10516000181619060CF038C781E294E00E948C05ED
:105170008A3009F4C5C08D3079F3E091FA02E13349
:1051800058F791E09E0F9093FA02F0E0E853FD4F3C
:105190008083E2CF9E3040F42850310981E001C085
:1051A000880F2A95EAF75ECE2E503109F7CF61E0DD
:1051B00070E0709301036093000387E58093AD0373
:1051C00083E58093AE0380E58093AF0382E580930F
:1051D000B00320E22093B10384E58093B20388E515
:1051E0008093B3031092B40342E050E05093D6038F
:1051F0004093D50381E48093D7038093D80390E351
:105200009093D9038093DA038093DB031092DD033C
:105210007093E6036093E5038093E8038093E903CA
:105220009093EA039093EB031092EC038093ED03C9
:105230008093EE039093EF039093F0038093F10338
:105240008093F2031092F3031092F5031092F4038B
:1052500080E18093F7035093DF034093DE032093B4
:10526000E0032093E1032093E2031092E30381E043
:105270008093E4038AE08093F60382E48093DC0366
:1052800086E08093E703E8EFF3E0119264E0E83012
:10529000F607D9F781E08093FD038093FE0380EE4B
:1052A00091E0A0E0B0E08093080490930904A093FB
:1052B0000A04B0930B0410920C048AEC80930D0442
:1052C0008AE980930E048BE380930F0410921004FC
:1052D00010921104109212041092130469E773E003
:1052E00081E294E00E942E1635CE0E94AA221ACFA7
:1052F0001092B6020E941B1F15CF0E941C1C12CFD9
:10530000E091FA02F0E0E853FD4F10828091C8026C
:105310008B3509F0B7C38091CC028D3509F0B2C34B
:105320008091C902833409F047C08091CA02833456
:10533000D9F48091CB028D34B9F48091CE028335BB
:1053400009F0A3C38091D002833511F40E94AA22F0
:105350008091D002873511F40E941B1F8091D002EA
:105360008E3411F40E941C1C8091CA02833589F48A
:105370008091CB02853469F48091CE02833549F463
:1053800080E00E94D32360E575E081E294E00E9412
:105390002E168091CA02833579F48091CB028C3429
:1053A00059F48091CE02833539F48091D002813452
:1053B00009F06FC31092C7028091C9028F3409F0BF
:1053C00047C18091CA02843599F58091CB0280351E
:1053D00079F58091CE02833509F06DC38091D002BA
:1053E00089838091D1028A838091D2028B838091BC
:1053F000D3028C838091D4028D831E82BE016F5FA5
:105400007F4FCE018F5B9F4F0E943D18CE018F5B77
:105410009F4F0E94270E2093080430930904409365
:105420000A0450930B04CE018F5B9F4F0E944E18CD
:105430008091CA02833591F48091CB028D3471F44E
:105440008091CE02833509F096C38091D0028335D6
:1054500009F082C3D092D603C092D5038091CA02CC
:105460008234F9F48091CB028434D9F49091D00243
:105470008091D1022091CE0299838A831B821C8263
:10548000233509F094C3CE0101960E944E31FC01F0
:10549000E850FC4F91E08091D302853409F090E010
:1054A00090838091CA028C3409F08BC08091CB022A
:1054B000833409F075C08091CE02833509F0A1C311
:1054C0008091D002873409F05FC0D092E603C09289
:1054D000E50362E375E081E294E00E942E1680917C
:1054E000FB0483FF51C082FF4FC08091F40490E021
:1054F0009093C6028093C5028091F30490E090934C
:10550000C4028093C3028091F20490E09093FD0264
:105510008093FC026091E1047091E2048091E304C5
:105520009091E4040E94873125E93FEB46ED53E377
:105530000E94E6311B012C016091DD047091DE04B4
:105540008091DF049091E0040E94873125E93FEBD0
:1055500046ED53E30E94E631A20191010E94460DFF
:105560006BE275E081E294E00E942C0588EE93E006
:105570000E94081664E275E081E294E00E942C0526
:105580008DEE93E00E9408168091D0028D3421F4B4
:105590001092E6031092E5038091CA028C3489F4DC
:1055A0008091CB02803569F48091CE02833509F079
:1055B00040C38091D002863309F037C376E0709300
:1055C000E7038091CA02803591F48091CB02873540
:1055D00071F48091CE02833509F03EC38091D002F0
:1055E0008E3409F031C31092F5031092F4038091C8
:1055F000CA028435B9F48091CB02833599F4809145
:10560000CE02833509F03CC38091D002898380911A
:10561000D1028A831B821C82CE0101960E944E31E8
:105620008093F7038091CA02803591F48091CB0278
:10563000833571F48091CE02833509F041C38091A6
:10564000D002803509F02DC3D092DF03C092DE0373
:105650008091C902843409F01AC18091CA0283344E
:1056600019F58091CB028335F9F48091CE02833510
:1056700009F042C38091D0028093D7038091D10278
:105680008093D8038091D2028093D9038091D30272
:105690008093DA038091D4028093DB038091D5025A
:1056A0008093DC031092DD038091CA028335C9F434
:1056B0008091CB028634A9F48091CE02833509F023
:1056C00026C38091D00289838091D1028A83809100
:1056D000D2028B831C82CE0101960E944E318093B0
:1056E000E4038091CA028035B9F48091CB028634FC
:1056F00099F48091CE02833509F020C38091D002C5
:105700008093E0038091D1028093E1038091D202E3
:105710008093E2031092E3038091CA028C34D9F49F
:105720008091CB028433B9F48091CE02833509F0A5
:1057300010C38091D0028093E8038091D1028093BE
:10574000E9038091D2028093EA038091D30280938F
:10575000EB031092EC038091CA028C3419F580910E
:10576000CB028633F9F48091CE02833509F0FCC276
:105770008091D0028093ED038091D1028093EE035B
:105780008091D2028093EF038091D3028093F00343
:105790008091D4028093F1038091D5028093F2032B
:1057A0001092F3038091CA028E34A9F48091CB0247
:1057B0008D3489F48091CE02833509F0E0C2A0EDEA
:1057C000B2E0EDEAF3E08D91819323E0E43DF2074E
:1057D000D1F71092D4038091CA028035B9F4809138
:1057E000CB02843499F48091CE02833509F0D2C281
:1057F0008091D00289838091D1028A831B821C828E
:10580000CE0101960E944E318093F6038091CA0228
:105810008734E9F58091CB028634C9F58091CE02B8
:10582000833509F0C8C2A0EDB2E0FE0131968D913A
:1058300081936E167F06D9F71D86BE016F5F7F4F7D
:10584000CE018F5B9F4F0E943D18CE018F5B9F4F13
:105850000E94270E20930C0430930D0440930E04F5
:1058600050930F04609310047093110480931204FA
:1058700090931304CE018F5B9F4F0E944E1880912E
:10588000000390910103019711F40E94AA228091D4
:10589000C902863409F0F6C08091CA028035D9F475
:1058A0008091CB028E34B9F48091CE02873499F482
:1058B00062EC74E081E294E00E942C050E940215E3
:1058C0004AE064E074E080E090E00E94DC0E81E257
:1058D00094E00E9406158091CA028834C9F4809130
:1058E000CB028635A9F48091CE02833509F08BC2B4
:1058F0008091D00289838091D1028A838091D202E3
:105900008B831C82CE0101960E944E318093B90296
:105910008091CA02883411F58091CB028235F1F46E
:105920008091CE02833509F085C28091D0028983AF
:105930008091D1028A838091D2028B831C82CE0116
:1059400001960E944E318093BA0260E281E294E0B7
:105950000E94F00581E294E00E9406158091CA023F
:105960008335A9F48091CB02863589F48091CE02EB
:10597000873469F46DEA74E081E294E00E942C05BA
:105980000E9402150E94021581E00E940A15809172
:10599000CA02833599F48091CB02823579F48091E3
:1059A000CE02873459F466EA74E081E294E00E9402
:1059B0002C050E9402158EE00E940A158091CA02F1
:1059C0008C34D1F48091CB028035B1F48091CE0239
:1059D000833509F067C28091D20289838091D30216
:1059E0008A831B828091D002823409F44DC20CF06C
:1059F00038C2813409F441C28091CA02823569F506
:105A00008091CB02863449F58091CE02833509F02E
:105A1000C2C2A0EDB2E0FE0131968D918193E815EE
:105A2000F905D9F71A86BE016F5F7F4FCE018F5BF4
:105A30009F4F0E943D18CE018F5B9F4F0E94270E03
:105A40002093BB023093BC024093BD025093BE0230
:105A5000CE018F5B9F4F0E944E188091CA02833502
:105A600089F48091CB02853469F48091CE0283352C
:105A700049F481E00E94D32366E374E081E294E07C
:105A80000E942E161092FA0267CB81E00E94C71A7C
:105A90006BCC823421F481E08093C7028DCC8334B7
:105AA00019F4F092C70288CC843409F085CC63E005
:105AB0006093C70281CC69E475E081E294E00E94C2
:105AC0002C058091080490910904A0910A04B091DA
:105AD0000B0480319742A105B10510F40E94021514
